{"contracts/Raffle.sol":{"Raffle":{"abi":[{"inputs":[{"internalType":"address","name":"vrfCoordinatorV2","type":"address"},{"internalType":"uint64","name":"subscriptionId","type":"uint64"},{"internalType":"bytes32","name":"gasLane","type":"bytes32"},{"internalType":"uint256","name":"interval","type":"uint256"},{"internalType":"uint32","name":"callbackGasLimit","type":"uint32"},{"internalType":"uint256","name":"entranceFee","type":"uint256"}],"stateMutability":"nonpayable","type":"constructor"},{"inputs":[{"internalType":"address","name":"have","type":"address"},{"internalType":"address","name":"want","type":"address"}],"name":"OnlyCoordinatorCanFulfill","type":"error"},{"inputs":[],"name":"Raffle__notEnoughFee","type":"error"},{"inputs":[],"name":"Raffle__notOpen","type":"error"},{"inputs":[{"internalType":"uint256","name":"currentBalance","type":"uint256"},{"internalType":"uint256","name":"numPlayers","type":"uint256"},{"internalType":"uint256","name":"raffleState","type":"uint256"}],"name":"Raffle__upkeepFailed","type":"error"},{"inputs":[],"name":"Raffle__withdrawalFailed","type":"error"},{"anonymous":false,"inputs":[{"indexed":true,"internalType":"address","name":"player","type":"address"}],"name":"RaffleEnter","type":"event"},{"anonymous":false,"inputs":[{"indexed":true,"internalType":"uint256","name":"requestId","type":"uint256"}],"name":"RequestedRaffleWinner","type":"event"},{"anonymous":false,"inputs":[{"indexed":true,"internalType":"address","name":"player","type":"address"}],"name":"getRecentWinner","type":"event"},{"inputs":[{"internalType":"uint64","name":"subId","type":"uint64"}],"name":"acceptSubscriptionOwnerTransfer","outputs":[],"stateMutability":"nonpayable","type":"function"},{"inputs":[{"internalType":"uint64","name":"subId","type":"uint64"},{"internalType":"address","name":"consumer","type":"address"}],"name":"addConsumer","outputs":[],"stateMutability":"nonpayable","type":"function"},{"inputs":[{"internalType":"uint64","name":"subId","type":"uint64"},{"internalType":"address","name":"to","type":"address"}],"name":"cancelSubscription","outputs":[],"stateMutability":"nonpayable","type":"function"},{"inputs":[{"internalType":"bytes","name":"","type":"bytes"}],"name":"checkUpkeep","outputs":[{"internalType":"bool","name":"upkeepNeeded","type":"bool"},{"internalType":"bytes","name":"","type":"bytes"}],"stateMutability":"view","type":"function"},{"inputs":[],"name":"createSubscription","outputs":[{"internalType":"uint64","name":"subId","type":"uint64"}],"stateMutability":"nonpayable","type":"function"},{"inputs":[],"name":"enterRaffle","outputs":[],"stateMutability":"payable","type":"function"},{"inputs":[],"name":"getEntranceFee","outputs":[{"internalType":"uint256","name":"","type":"uint256"}],"stateMutability":"view","type":"function"},{"inputs":[],"name":"getInterval","outputs":[{"internalType":"uint256","name":"","type":"uint256"}],"stateMutability":"view","type":"function"},{"inputs":[],"name":"getLatestTimestamp","outputs":[{"internalType":"uint256","name":"","type":"uint256"}],"stateMutability":"view","type":"function"},{"inputs":[{"internalType":"uint256","name":"index","type":"uint256"}],"name":"getPlayers","outputs":[{"internalType":"address","name":"","type":"address"}],"stateMutability":"view","type":"function"},{"inputs":[],"name":"getRaffleState","outputs":[{"internalType":"enum Raffle.RaffleState","name":"","type":"uint8"}],"stateMutability":"view","type":"function"},{"inputs":[],"name":"getRequestConfig","outputs":[{"internalType":"uint16","name":"","type":"uint16"},{"internalType":"uint32","name":"","type":"uint32"},{"internalType":"bytes32[]","name":"","type":"bytes32[]"}],"stateMutability":"view","type":"function"},{"inputs":[{"internalType":"uint64","name":"subId","type":"uint64"}],"name":"getSubscription","outputs":[{"internalType":"uint96","name":"balance","type":"uint96"},{"internalType":"uint64","name":"reqCount","type":"uint64"},{"internalType":"address","name":"owner","type":"address"},{"internalType":"address[]","name":"consumers","type":"address[]"}],"stateMutability":"view","type":"function"},{"inputs":[],"name":"getWinner","outputs":[{"internalType":"address","name":"","type":"address"}],"stateMutability":"view","type":"function"},{"inputs":[{"internalType":"uint64","name":"subId","type":"uint64"}],"name":"pendingRequestExists","outputs":[{"internalType":"bool","name":"","type":"bool"}],"stateMutability":"view","type":"function"},{"inputs":[{"internalType":"bytes","name":"","type":"bytes"}],"name":"performUpkeep","outputs":[],"stateMutability":"nonpayable","type":"function"},{"inputs":[{"internalType":"uint256","name":"requestId","type":"uint256"},{"internalType":"uint256[]","name":"randomWords","type":"uint256[]"}],"name":"rawFulfillRandomWords","outputs":[],"stateMutability":"nonpayable","type":"function"},{"inputs":[{"internalType":"uint64","name":"subId","type":"uint64"},{"internalType":"address","name":"consumer","type":"address"}],"name":"removeConsumer","outputs":[],"stateMutability":"nonpayable","type":"function"},{"inputs":[{"internalType":"bytes32","name":"keyHash","type":"bytes32"},{"internalType":"uint64","name":"subId","type":"uint64"},{"internalType":"uint16","name":"minimumRequestConfirmations","type":"uint16"},{"internalType":"uint32","name":"callbackGasLimit","type":"uint32"},{"internalType":"uint32","name":"numWords","type":"uint32"}],"name":"requestRandomWords","outputs":[{"internalType":"uint256","name":"requestId","type":"uint256"}],"stateMutability":"nonpayable","type":"function"},{"inputs":[{"internalType":"uint64","name":"subId","type":"uint64"},{"internalType":"address","name":"newOwner","type":"address"}],"name":"requestSubscriptionOwnerTransfer","outputs":[],"stateMutability":"nonpayable","type":"function"}],"devdoc":{"kind":"dev","methods":{"acceptSubscriptionOwnerTransfer(uint64)":{"details":"will revert if original owner of subId has not requested that msg.sender become the new owner.","params":{"subId":"- ID of the subscription"}},"addConsumer(uint64,address)":{"params":{"consumer":"- New consumer which can use the subscription","subId":"- ID of the subscription"}},"cancelSubscription(uint64,address)":{"params":{"subId":"- ID of the subscription","to":"- Where to send the remaining LINK to"}},"createSubscription()":{"details":"You can manage the consumer set dynamically with addConsumer/removeConsumer.Note to fund the subscription, use transferAndCall. For exampleLINKTOKEN.transferAndCall(address(COORDINATOR),amount,abi.encode(subId));","returns":{"subId":"- A unique subscription id."}},"getRequestConfig()":{"returns":{"_0":"minimumRequestConfirmations global min for request confirmations","_1":"maxGasLimit global max for request gas limit","_2":"s_provingKeyHashes list of registered key hashes"}},"getSubscription(uint64)":{"params":{"subId":"- ID of the subscription"},"returns":{"balance":"- LINK balance of the subscription in juels.","consumers":"- list of consumer address which are able to use this subscription.","owner":"- owner of the subscription.","reqCount":"- number of requests for this subscription, determines fee tier."}},"removeConsumer(uint64,address)":{"params":{"consumer":"- Consumer to remove from the subscription","subId":"- ID of the subscription"}},"requestRandomWords(bytes32,uint64,uint16,uint32,uint32)":{"params":{"callbackGasLimit":"- How much gas you'd like to receive in your fulfillRandomWords callback. Note that gasleft() inside fulfillRandomWords may be slightly less than this amount because of gas used calling the function (argument decoding etc.), so you may need to request slightly more than you expect to have inside fulfillRandomWords. The acceptable range is [0, maxGasLimit]","keyHash":"- Corresponds to a particular oracle job which uses that key for generating the VRF proof. Different keyHash's have different gas price ceilings, so you can select a specific one to bound your maximum per request cost.","minimumRequestConfirmations":"- How many blocks you'd like the oracle to wait before responding to the request. See SECURITY CONSIDERATIONS for why you may want to request more. The acceptable range is [minimumRequestBlockConfirmations, 200].","numWords":"- The number of uint256 random values you'd like to receive in your fulfillRandomWords callback. Note these numbers are expanded in a secure way by the VRFCoordinator from a single random value supplied by the oracle.","subId":"- The ID of the VRF subscription. Must be funded with the minimum subscription balance required for the selected keyHash."},"returns":{"requestId":"- A unique identifier of the request. Can be used to match a request to a response in fulfillRandomWords."}},"requestSubscriptionOwnerTransfer(uint64,address)":{"params":{"newOwner":"- proposed new owner of the subscription","subId":"- ID of the subscription"}}},"version":1},"evm":{"bytecode":{"linkReferences":{},"object":"6101406040523480156200001257600080fd5b5060405162001e9238038062001e928339818101604052810190620000389190620001a8565b858073ffffffffffffffffffffffffffffffffffffffff1660808173ffffffffffffffffffffffffffffffffffffffff1660601b81525050508573ffffffffffffffffffffffffffffffffffffffff1660a08173ffffffffffffffffffffffffffffffffffffffff1660601b815250508467ffffffffffffffff1660e08167ffffffffffffffff1660c01b815250508360c0818152505082610120818152505060008054906101000a900463ffffffff169150806101008181525050426003819055506000600260006101000a81548160ff02191690836001811115620001245762000123620002b0565b5b021790555050505050505062000366565b6000815190506200014681620002e4565b92915050565b6000815190506200015d81620002fe565b92915050565b600081519050620001748162000318565b92915050565b6000815190506200018b8162000332565b92915050565b600081519050620001a2816200034c565b92915050565b60008060008060008060c08789031215620001c857620001c7620002df565b5b6000620001d889828a0162000135565b9650506020620001eb89828a0162000191565b9550506040620001fe89828a016200014c565b94505060606200021189828a0162000163565b93505060806200022489828a016200017a565b92505060a06200023789828a0162000163565b9150509295509295509295565b6000620002518262000262565b9050919050565b6000819050919050565b600073ffffffffffffffffffffffffffffffffffffffff82169050919050565b6000819050919050565b600063ffffffff82169050919050565b600067ffffffffffffffff82169050919050565b7f4e487b7100000000000000000000000000000000000000000000000000000000600052602160045260246000fd5b600080fd5b620002ef8162000244565b8114620002fb57600080fd5b50565b620003098162000258565b81146200031557600080fd5b50565b620003238162000282565b81146200032f57600080fd5b50565b6200033d816200028c565b81146200034957600080fd5b50565b62000357816200029c565b81146200036357600080fd5b50565b60805160601c60a05160601c60c05160e05160c01c6101005161012051611abe620003d4600039600081816109c40152610a8b0152600081816104c201526105bf0152600061084101526000610820015260006107e40152600081816104ff01526105530152611abe6000f3fe60806040526004361061011e5760003560e01c80637341c10c116100a0578063a21a23e411610064578063a21a23e4146103b4578063a47c7696146103df578063d7ae1d301461041f578063e82ad7d414610448578063f43b52cb146104855761011e565b80637341c10c146102e3578063823597401461030c5780638e7ea5b21461033557806391ad27b4146103605780639f87fad71461038b5761011e565b80632cfcc539116100e75780632cfcc539146101f85780634585e33b14610202578063460e20491461022b5780635d3b1d30146102685780636e04ff0d146102a55761011e565b80620122911461012357806304c357cb1461015057806309bc33a714610179578063115cbaf5146101a45780631fe543e3146101cf575b600080fd5b34801561012f57600080fd5b506101386104b0565b60405161014793929190611510565b60405180910390f35b34801561015c57600080fd5b50610177600480360381019061017291906111c2565b6104ba565b005b34801561018557600080fd5b5061018e6104be565b60405161019b919061154e565b60405180910390f35b3480156101b057600080fd5b506101b96104e6565b6040516101c691906114f5565b60405180910390f35b3480156101db57600080fd5b506101f660048036038101906101f19190611139565b6104fd565b005b6102006105bd565b005b34801561020e57600080fd5b5061022960048036038101906102249190611049565b61072c565b005b34801561023757600080fd5b50610252600480360381019061024d91906110df565b61091c565b60405161025f9190611413565b60405180910390f35b34801561027457600080fd5b5061028f600480360381019061028a9190610fce565b610964565b60405161029c919061154e565b60405180910390f35b3480156102b157600080fd5b506102cc60048036038101906102c79190611096565b61096f565b6040516102da929190611472565b60405180910390f35b3480156102ef57600080fd5b5061030a600480360381019061030591906111c2565b610a56565b005b34801561031857600080fd5b50610333600480360381019061032e9190611195565b610a5a565b005b34801561034157600080fd5b5061034a610a5d565b6040516103579190611413565b60405180910390f35b34801561036c57600080fd5b50610375610a87565b604051610382919061154e565b60405180910390f35b34801561039757600080fd5b506103b260048036038101906103ad91906111c2565b610aaf565b005b3480156103c057600080fd5b506103c9610ab3565b6040516103d691906115a0565b60405180910390f35b3480156103eb57600080fd5b5061040660048036038101906104019190611195565b610ab8565b60405161041694939291906115bb565b60405180910390f35b34801561042b57600080fd5b50610446600480360381019061044191906111c2565b610ac6565b005b34801561045457600080fd5b5061046f600480360381019061046a9190611195565b610aca565b60405161047c9190611457565b60405180910390f35b34801561049157600080fd5b5061049a610ad1565b6040516104a7919061154e565b60405180910390f35b6000806060909192565b5050565b60007f0000000000000000000000000000000000000000000000000000000000000000905090565b6000600260009054906101000a900460ff16905090565b7f000000000000000000000000000000000000000000000000000000000000000073ffffffffffffffffffffffffffffffffffffffff163373ffffffffffffffffffffffffffffffffffffffff16146105af57337f00000000000000000000000000000000000000000000000000000000000000006040517f1cf993f40000000000000000000000000000000000000000000000000000000081526004016105a692919061142e565b60405180910390fd5b6105b98282610adb565b5050565b7f0000000000000000000000000000000000000000000000000000000000000000341015610617576040517faefe484200000000000000000000000000000000000000000000000000000000815260040160405180910390fd5b6000600181111561062b5761062a61192b565b5b600260009054906101000a900460ff16600181111561064d5761064c61192b565b5b14610684576040517f4ff3426e00000000000000000000000000000000000000000000000000000000815260040160405180910390fd5b6001339080600181540180825580915050600190039060005260206000200160009091909190916101000a81548173ffffffffffffffffffffffffffffffffffffffff021916908373ffffffffffffffffffffffffffffffffffffffff1602179055503373ffffffffffffffffffffffffffffffffffffffff167f0805e1d667bddb8a95f0f09880cf94f403fb596ce79928d9f29b74203ba284d460405160405180910390a2565b60006107466040518060200160405280600081525061096f565b509050806107b55747600180549050600260009054906101000a900460ff1660018111156107775761077661192b565b5b6040517f1febb43f0000000000000000000000000000000000000000000000000000000081526004016107ac93929190611569565b60405180910390fd5b6001600260006101000a81548160ff021916908360018111156107db576107da61192b565b5b021790555060007f000000000000000000000000000000000000000000000000000000000000000073ffffffffffffffffffffffffffffffffffffffff16635d3b1d307f00000000000000000000000000000000000000000000000000000000000000007f0000000000000000000000000000000000000000000000000000000000000000600360008054906101000a900463ffffffff1660016040518663ffffffff1660e01b81526004016108959594939291906114a2565b602060405180830381600087803b1580156108af57600080fd5b505af11580156108c3573d6000803e3d6000fd5b505050506040513d601f19601f820116820180604052508101906108e7919061110c565b9050807fcd6e45c8998311cab7e9d4385596cac867e20a0587194b954fa3a731c93ce78b60405160405180910390a250505050565b6000600182815481106109325761093161195a565b5b9060005260206000200160009054906101000a900473ffffffffffffffffffffffffffffffffffffffff169050919050565b600095945050505050565b6000606060008060018111156109885761098761192b565b5b600260009054906101000a900460ff1660018111156109aa576109a961192b565b5b1490506000806001805490501190506000804711905060007f0000000000000000000000000000000000000000000000000000000000000000600354426109f19190611722565b1190508380156109fe5750825b8015610a075750815b8015610a105750805b9550856040518060400160405280600381526020017f30783000000000000000000000000000000000000000000000000000000000008152509550955050505050915091565b5050565b50565b6000600260019054906101000a900473ffffffffffffffffffffffffffffffffffffffff16905090565b60007f0000000000000000000000000000000000000000000000000000000000000000905090565b5050565b600090565b600080600060609193509193565b5050565b6000919050565b6000600354905090565b600060018054905082600081518110610af757610af661195a565b5b6020026020010151610b09919061189c565b9050600060018281548110610b2157610b2061195a565b5b9060005260206000200160009054906101000a900473ffffffffffffffffffffffffffffffffffffffff16905080600260016101000a81548173ffffffffffffffffffffffffffffffffffffffff021916908373ffffffffffffffffffffffffffffffffffffffff160217905550600067ffffffffffffffff811115610baa57610ba9611989565b5b604051908082528060200260200182016040528015610bd85781602001602082028036833780820191505090505b5060019080519060200190610bee929190610d30565b506000600260006101000a81548160ff02191690836001811115610c1557610c1461192b565b5b02179055504260038190555060008173ffffffffffffffffffffffffffffffffffffffff1647604051610c47906113fe565b60006040518083038185875af1925050503d8060008114610c84576040519150601f19603f3d011682016040523d82523d6000602084013e610c89565b606091505b5050905080610cc4576040517ff14c8af100000000000000000000000000000000000000000000000000000000815260040160405180910390fd5b600260019054906101000a900473ffffffffffffffffffffffffffffffffffffffff1673ffffffffffffffffffffffffffffffffffffffff167fe1becba315bbc7476573420d6218b61de9aa81ae6f20904b35f4f1e74eccac0160405160405180910390a25050505050565b828054828255906000526020600020908101928215610da9579160200282015b82811115610da85782518260006101000a81548173ffffffffffffffffffffffffffffffffffffffff021916908373ffffffffffffffffffffffffffffffffffffffff16021790555091602001919060010190610d50565b5b509050610db69190610dba565b5090565b5b80821115610dd3576000816000905550600101610dbb565b5090565b6000610dea610de58461162c565b611607565b90508083825260208201905082856020860282011115610e0d57610e0c6119c2565b5b60005b85811015610e3d5781610e238882610f7a565b845260208401935060208301925050600181019050610e10565b5050509392505050565b6000610e5a610e5584611658565b611607565b905082815260208101848484011115610e7657610e756119c7565b5b610e81848285611829565b509392505050565b600081359050610e98816119fe565b92915050565b600082601f830112610eb357610eb26119bd565b5b8135610ec3848260208601610dd7565b91505092915050565b600081359050610edb81611a15565b92915050565b60008083601f840112610ef757610ef66119bd565b5b8235905067ffffffffffffffff811115610f1457610f136119b8565b5b602083019150836001820283011115610f3057610f2f6119c2565b5b9250929050565b600082601f830112610f4c57610f4b6119bd565b5b8135610f5c848260208601610e47565b91505092915050565b600081359050610f7481611a2c565b92915050565b600081359050610f8981611a43565b92915050565b600081519050610f9e81611a43565b92915050565b600081359050610fb381611a5a565b92915050565b600081359050610fc881611a71565b92915050565b600080600080600060a08688031215610fea57610fe96119d1565b5b6000610ff888828901610ecc565b955050602061100988828901610fb9565b945050604061101a88828901610f65565b935050606061102b88828901610fa4565b925050608061103c88828901610fa4565b9150509295509295909350565b600080602083850312156110605761105f6119d1565b5b600083013567ffffffffffffffff81111561107e5761107d6119cc565b5b61108a85828601610ee1565b92509250509250929050565b6000602082840312156110ac576110ab6119d1565b5b600082013567ffffffffffffffff8111156110ca576110c96119cc565b5b6110d684828501610f37565b91505092915050565b6000602082840312156110f5576110f46119d1565b5b600061110384828501610f7a565b91505092915050565b600060208284031215611122576111216119d1565b5b600061113084828501610f8f565b91505092915050565b600080604083850312156111505761114f6119d1565b5b600061115e85828601610f7a565b925050602083013567ffffffffffffffff81111561117f5761117e6119cc565b5b61118b85828601610e9e565b9150509250929050565b6000602082840312156111ab576111aa6119d1565b5b60006111b984828501610fb9565b91505092915050565b600080604083850312156111d9576111d86119d1565b5b60006111e785828601610fb9565b92505060206111f885828601610e89565b9150509250929050565b600061120e8383611232565b60208301905092915050565b6000611226838361131b565b60208301905092915050565b61123b81611756565b82525050565b61124a81611756565b82525050565b600061125b826116a9565b61126581856116e4565b935061127083611689565b8060005b838110156112a15781516112888882611202565b9750611293836116ca565b925050600181019050611274565b5085935050505092915050565b60006112b9826116b4565b6112c381856116f5565b93506112ce83611699565b8060005b838110156112ff5781516112e6888261121a565b97506112f1836116d7565b9250506001810190506112d2565b5085935050505092915050565b61131581611768565b82525050565b61132481611774565b82525050565b61133381611774565b82525050565b6000611344826116bf565b61134e8185611706565b935061135e818560208601611838565b611367816119d6565b840191505092915050565b61137b81611805565b82525050565b600061138e600083611717565b9150611399826119e7565b600082019050919050565b6113ad81611791565b82525050565b6113bc81611817565b82525050565b6113cb816117bf565b82525050565b6113da816117c9565b82525050565b6113e9816117d9565b82525050565b6113f8816117ed565b82525050565b600061140982611381565b9150819050919050565b60006020820190506114286000830184611241565b92915050565b60006040820190506114436000830185611241565b6114506020830184611241565b9392505050565b600060208201905061146c600083018461130c565b92915050565b6000604082019050611487600083018561130c565b81810360208301526114998184611339565b90509392505050565b600060a0820190506114b7600083018861132a565b6114c460208301876113e0565b6114d160408301866113a4565b6114de60608301856113d1565b6114eb60808301846113b3565b9695505050505050565b600060208201905061150a6000830184611372565b92915050565b600060608201905061152560008301866113a4565b61153260208301856113d1565b818103604083015261154481846112ae565b9050949350505050565b600060208201905061156360008301846113c2565b92915050565b600060608201905061157e60008301866113c2565b61158b60208301856113c2565b61159860408301846113c2565b949350505050565b60006020820190506115b560008301846113e0565b92915050565b60006080820190506115d060008301876113ef565b6115dd60208301866113e0565b6115ea6040830185611241565b81810360608301526115fc8184611250565b905095945050505050565b6000611611611622565b905061161d828261186b565b919050565b6000604051905090565b600067ffffffffffffffff82111561164757611646611989565b5b602082029050602081019050919050565b600067ffffffffffffffff82111561167357611672611989565b5b61167c826119d6565b9050602081019050919050565b6000819050602082019050919050565b6000819050602082019050919050565b600081519050919050565b600081519050919050565b600081519050919050565b6000602082019050919050565b6000602082019050919050565b600082825260208201905092915050565b600082825260208201905092915050565b600082825260208201905092915050565b600081905092915050565b600061172d826117bf565b9150611738836117bf565b92508282101561174b5761174a6118cd565b5b828203905092915050565b60006117618261179f565b9050919050565b60008115159050919050565b6000819050919050565b600081905061178c826119ea565b919050565b600061ffff82169050919050565b600073ffffffffffffffffffffffffffffffffffffffff82169050919050565b6000819050919050565b600063ffffffff82169050919050565b600067ffffffffffffffff82169050919050565b60006bffffffffffffffffffffffff82169050919050565b60006118108261177e565b9050919050565b600061182282611791565b9050919050565b82818337600083830152505050565b60005b8381101561185657808201518184015260208101905061183b565b83811115611865576000848401525b50505050565b611874826119d6565b810181811067ffffffffffffffff8211171561189357611892611989565b5b80604052505050565b60006118a7826117bf565b91506118b2836117bf565b9250826118c2576118c16118fc565b5b828206905092915050565b7f4e487b7100000000000000000000000000000000000000000000000000000000600052601160045260246000fd5b7f4e487b7100000000000000000000000000000000000000000000000000000000600052601260045260246000fd5b7f4e487b7100000000000000000000000000000000000000000000000000000000600052602160045260246000fd5b7f4e487b7100000000000000000000000000000000000000000000000000000000600052603260045260246000fd5b7f4e487b7100000000000000000000000000000000000000000000000000000000600052604160045260246000fd5b600080fd5b600080fd5b600080fd5b600080fd5b600080fd5b600080fd5b6000601f19601f8301169050919050565b50565b600281106119fb576119fa61192b565b5b50565b611a0781611756565b8114611a1257600080fd5b50565b611a1e81611774565b8114611a2957600080fd5b50565b611a3581611791565b8114611a4057600080fd5b50565b611a4c816117bf565b8114611a5757600080fd5b50565b611a63816117c9565b8114611a6e57600080fd5b50565b611a7a816117d9565b8114611a8557600080fd5b5056fea2646970667358221220c5edc9e7a00be5995a84dbd475fb7f87d150c35d7fc25364bf7dc07c2589d36664736f6c63430008070033","opcodes":"PUSH2 0x140 PUSH1 0x40 MSTORE CALLVALUE DUP1 ISZERO PUSH3 0x12 JUMPI PUSH1 0x0 DUP1 REVERT JUMPDEST POP PUSH1 0x40 MLOAD PUSH3 0x1E92 CODESIZE SUB DUP1 PUSH3 0x1E92 DUP4 CODECOPY DUP2 DUP2 ADD PUSH1 0x40 MSTORE DUP2 ADD SWAP1 PUSH3 0x38 SWAP2 SWAP1 PUSH3 0x1A8 JUMP JUMPDEST DUP6 DUP1 PUSH20 0xFFFFFFFFFFFFFFFFFFFFFFFFFFFFFFFFFFFFFFFF AND PUSH1 0x80 DUP2 PUSH20 0xFFFFFFFFFFFFFFFFFFFFFFFFFFFFFFFFFFFFFFFF AND PUSH1 0x60 SHL DUP2 MSTORE POP POP POP DUP6 PUSH20 0xFFFFFFFFFFFFFFFFFFFFFFFFFFFFFFFFFFFFFFFF AND PUSH1 0xA0 DUP2 PUSH20 0xFFFFFFFFFFFFFFFFFFFFFFFFFFFFFFFFFFFFFFFF AND PUSH1 0x60 SHL DUP2 MSTORE POP POP DUP5 PUSH8 0xFFFFFFFFFFFFFFFF AND PUSH1 0xE0 DUP2 PUSH8 0xFFFFFFFFFFFFFFFF AND PUSH1 0xC0 SHL DUP2 MSTORE POP POP DUP4 PUSH1 0xC0 DUP2 DUP2 MSTORE POP POP DUP3 PUSH2 0x120 DUP2 DUP2 MSTORE POP POP PUSH1 0x0 DUP1 SLOAD SWAP1 PUSH2 0x100 EXP SWAP1 DIV PUSH4 0xFFFFFFFF AND SWAP2 POP DUP1 PUSH2 0x100 DUP2 DUP2 MSTORE POP POP TIMESTAMP PUSH1 0x3 DUP2 SWAP1 SSTORE POP PUSH1 0x0 PUSH1 0x2 PUSH1 0x0 PUSH2 0x100 EXP DUP2 SLOAD DUP2 PUSH1 0xFF MUL NOT AND SWAP1 DUP4 PUSH1 0x1 DUP2 GT ISZERO PUSH3 0x124 JUMPI PUSH3 0x123 PUSH3 0x2B0 JUMP JUMPDEST JUMPDEST MUL OR SWAP1 SSTORE POP POP POP POP POP POP POP PUSH3 0x366 JUMP JUMPDEST PUSH1 0x0 DUP2 MLOAD SWAP1 POP PUSH3 0x146 DUP2 PUSH3 0x2E4 JUMP JUMPDEST SWAP3 SWAP2 POP POP JUMP JUMPDEST PUSH1 0x0 DUP2 MLOAD SWAP1 POP PUSH3 0x15D DUP2 PUSH3 0x2FE JUMP JUMPDEST SWAP3 SWAP2 POP POP JUMP JUMPDEST PUSH1 0x0 DUP2 MLOAD SWAP1 POP PUSH3 0x174 DUP2 PUSH3 0x318 JUMP JUMPDEST SWAP3 SWAP2 POP POP JUMP JUMPDEST PUSH1 0x0 DUP2 MLOAD SWAP1 POP PUSH3 0x18B DUP2 PUSH3 0x332 JUMP JUMPDEST SWAP3 SWAP2 POP POP JUMP JUMPDEST PUSH1 0x0 DUP2 MLOAD SWAP1 POP PUSH3 0x1A2 DUP2 PUSH3 0x34C JUMP JUMPDEST SWAP3 SWAP2 POP POP JUMP JUMPDEST PUSH1 0x0 DUP1 PUSH1 0x0 DUP1 PUSH1 0x0 DUP1 PUSH1 0xC0 DUP8 DUP10 SUB SLT ISZERO PUSH3 0x1C8 JUMPI PUSH3 0x1C7 PUSH3 0x2DF JUMP JUMPDEST JUMPDEST PUSH1 0x0 PUSH3 0x1D8 DUP10 DUP3 DUP11 ADD PUSH3 0x135 JUMP JUMPDEST SWAP7 POP POP PUSH1 0x20 PUSH3 0x1EB DUP10 DUP3 DUP11 ADD PUSH3 0x191 JUMP JUMPDEST SWAP6 POP POP PUSH1 0x40 PUSH3 0x1FE DUP10 DUP3 DUP11 ADD PUSH3 0x14C JUMP JUMPDEST SWAP5 POP POP PUSH1 0x60 PUSH3 0x211 DUP10 DUP3 DUP11 ADD PUSH3 0x163 JUMP JUMPDEST SWAP4 POP POP PUSH1 0x80 PUSH3 0x224 DUP10 DUP3 DUP11 ADD PUSH3 0x17A JUMP JUMPDEST SWAP3 POP POP PUSH1 0xA0 PUSH3 0x237 DUP10 DUP3 DUP11 ADD PUSH3 0x163 JUMP JUMPDEST SWAP2 POP POP SWAP3 SWAP6 POP SWAP3 SWAP6 POP SWAP3 SWAP6 JUMP JUMPDEST PUSH1 0x0 PUSH3 0x251 DUP3 PUSH3 0x262 JUMP JUMPDEST SWAP1 POP SWAP2 SWAP1 POP JUMP JUMPDEST PUSH1 0x0 DUP2 SWAP1 POP SWAP2 SWAP1 POP JUMP JUMPDEST PUSH1 0x0 PUSH20 0xFFFFFFFFFFFFFFFFFFFFFFFFFFFFFFFFFFFFFFFF DUP3 AND SWAP1 POP SWAP2 SWAP1 POP JUMP JUMPDEST PUSH1 0x0 DUP2 SWAP1 POP SWAP2 SWAP1 POP JUMP JUMPDEST PUSH1 0x0 PUSH4 0xFFFFFFFF DUP3 AND SWAP1 POP SWAP2 SWAP1 POP JUMP JUMPDEST PUSH1 0x0 PUSH8 0xFFFFFFFFFFFFFFFF DUP3 AND SWAP1 POP SWAP2 SWAP1 POP JUMP JUMPDEST PUSH32 0x4E487B7100000000000000000000000000000000000000000000000000000000 PUSH1 0x0 MSTORE PUSH1 0x21 PUSH1 0x4 MSTORE PUSH1 0x24 PUSH1 0x0 REVERT JUMPDEST PUSH1 0x0 DUP1 REVERT JUMPDEST PUSH3 0x2EF DUP2 PUSH3 0x244 JUMP JUMPDEST DUP2 EQ PUSH3 0x2FB JUMPI PUSH1 0x0 DUP1 REVERT JUMPDEST POP JUMP JUMPDEST PUSH3 0x309 DUP2 PUSH3 0x258 JUMP JUMPDEST DUP2 EQ PUSH3 0x315 JUMPI PUSH1 0x0 DUP1 REVERT JUMPDEST POP JUMP JUMPDEST PUSH3 0x323 DUP2 PUSH3 0x282 JUMP JUMPDEST DUP2 EQ PUSH3 0x32F JUMPI PUSH1 0x0 DUP1 REVERT JUMPDEST POP JUMP JUMPDEST PUSH3 0x33D DUP2 PUSH3 0x28C JUMP JUMPDEST DUP2 EQ PUSH3 0x349 JUMPI PUSH1 0x0 DUP1 REVERT JUMPDEST POP JUMP JUMPDEST PUSH3 0x357 DUP2 PUSH3 0x29C JUMP JUMPDEST DUP2 EQ PUSH3 0x363 JUMPI PUSH1 0x0 DUP1 REVERT JUMPDEST POP JUMP JUMPDEST PUSH1 0x80 MLOAD PUSH1 0x60 SHR PUSH1 0xA0 MLOAD PUSH1 0x60 SHR PUSH1 0xC0 MLOAD PUSH1 0xE0 MLOAD PUSH1 0xC0 SHR PUSH2 0x100 MLOAD PUSH2 0x120 MLOAD PUSH2 0x1ABE PUSH3 0x3D4 PUSH1 0x0 CODECOPY PUSH1 0x0 DUP2 DUP2 PUSH2 0x9C4 ADD MSTORE PUSH2 0xA8B ADD MSTORE PUSH1 0x0 DUP2 DUP2 PUSH2 0x4C2 ADD MSTORE PUSH2 0x5BF ADD MSTORE PUSH1 0x0 PUSH2 0x841 ADD MSTORE PUSH1 0x0 PUSH2 0x820 ADD MSTORE PUSH1 0x0 PUSH2 0x7E4 ADD MSTORE PUSH1 0x0 DUP2 DUP2 PUSH2 0x4FF ADD MSTORE PUSH2 0x553 ADD MSTORE PUSH2 0x1ABE PUSH1 0x0 RETURN INVALID PUSH1 0x80 PUSH1 0x40 MSTORE PUSH1 0x4 CALLDATASIZE LT PUSH2 0x11E JUMPI PUSH1 0x0 CALLDATALOAD PUSH1 0xE0 SHR DUP1 PUSH4 0x7341C10C GT PUSH2 0xA0 JUMPI DUP1 PUSH4 0xA21A23E4 GT PUSH2 0x64 JUMPI DUP1 PUSH4 0xA21A23E4 EQ PUSH2 0x3B4 JUMPI DUP1 PUSH4 0xA47C7696 EQ PUSH2 0x3DF JUMPI DUP1 PUSH4 0xD7AE1D30 EQ PUSH2 0x41F JUMPI DUP1 PUSH4 0xE82AD7D4 EQ PUSH2 0x448 JUMPI DUP1 PUSH4 0xF43B52CB EQ PUSH2 0x485 JUMPI PUSH2 0x11E JUMP JUMPDEST DUP1 PUSH4 0x7341C10C EQ PUSH2 0x2E3 JUMPI DUP1 PUSH4 0x82359740 EQ PUSH2 0x30C JUMPI DUP1 PUSH4 0x8E7EA5B2 EQ PUSH2 0x335 JUMPI DUP1 PUSH4 0x91AD27B4 EQ PUSH2 0x360 JUMPI DUP1 PUSH4 0x9F87FAD7 EQ PUSH2 0x38B JUMPI PUSH2 0x11E JUMP JUMPDEST DUP1 PUSH4 0x2CFCC539 GT PUSH2 0xE7 JUMPI DUP1 PUSH4 0x2CFCC539 EQ PUSH2 0x1F8 JUMPI DUP1 PUSH4 0x4585E33B EQ PUSH2 0x202 JUMPI DUP1 PUSH4 0x460E2049 EQ PUSH2 0x22B JUMPI DUP1 PUSH4 0x5D3B1D30 EQ PUSH2 0x268 JUMPI DUP1 PUSH4 0x6E04FF0D EQ PUSH2 0x2A5 JUMPI PUSH2 0x11E JUMP JUMPDEST DUP1 PUSH3 0x12291 EQ PUSH2 0x123 JUMPI DUP1 PUSH4 0x4C357CB EQ PUSH2 0x150 JUMPI DUP1 PUSH4 0x9BC33A7 EQ PUSH2 0x179 JUMPI DUP1 PUSH4 0x115CBAF5 EQ PUSH2 0x1A4 JUMPI DUP1 PUSH4 0x1FE543E3 EQ PUSH2 0x1CF JUMPI JUMPDEST PUSH1 0x0 DUP1 REVERT JUMPDEST CALLVALUE DUP1 ISZERO PUSH2 0x12F JUMPI PUSH1 0x0 DUP1 REVERT JUMPDEST POP PUSH2 0x138 PUSH2 0x4B0 JUMP JUMPDEST PUSH1 0x40 MLOAD PUSH2 0x147 SWAP4 SWAP3 SWAP2 SWAP1 PUSH2 0x1510 JUMP JUMPDEST PUSH1 0x40 MLOAD DUP1 SWAP2 SUB SWAP1 RETURN JUMPDEST CALLVALUE DUP1 ISZERO PUSH2 0x15C JUMPI PUSH1 0x0 DUP1 REVERT JUMPDEST POP PUSH2 0x177 PUSH1 0x4 DUP1 CALLDATASIZE SUB DUP2 ADD SWAP1 PUSH2 0x172 SWAP2 SWAP1 PUSH2 0x11C2 JUMP JUMPDEST PUSH2 0x4BA JUMP JUMPDEST STOP JUMPDEST CALLVALUE DUP1 ISZERO PUSH2 0x185 JUMPI PUSH1 0x0 DUP1 REVERT JUMPDEST POP PUSH2 0x18E PUSH2 0x4BE JUMP JUMPDEST PUSH1 0x40 MLOAD PUSH2 0x19B SWAP2 SWAP1 PUSH2 0x154E JUMP JUMPDEST PUSH1 0x40 MLOAD DUP1 SWAP2 SUB SWAP1 RETURN JUMPDEST CALLVALUE DUP1 ISZERO PUSH2 0x1B0 JUMPI PUSH1 0x0 DUP1 REVERT JUMPDEST POP PUSH2 0x1B9 PUSH2 0x4E6 JUMP JUMPDEST PUSH1 0x40 MLOAD PUSH2 0x1C6 SWAP2 SWAP1 PUSH2 0x14F5 JUMP JUMPDEST PUSH1 0x40 MLOAD DUP1 SWAP2 SUB SWAP1 RETURN JUMPDEST CALLVALUE DUP1 ISZERO PUSH2 0x1DB JUMPI PUSH1 0x0 DUP1 REVERT JUMPDEST POP PUSH2 0x1F6 PUSH1 0x4 DUP1 CALLDATASIZE SUB DUP2 ADD SWAP1 PUSH2 0x1F1 SWAP2 SWAP1 PUSH2 0x1139 JUMP JUMPDEST PUSH2 0x4FD JUMP JUMPDEST STOP JUMPDEST PUSH2 0x200 PUSH2 0x5BD JUMP JUMPDEST STOP JUMPDEST CALLVALUE DUP1 ISZERO PUSH2 0x20E JUMPI PUSH1 0x0 DUP1 REVERT JUMPDEST POP PUSH2 0x229 PUSH1 0x4 DUP1 CALLDATASIZE SUB DUP2 ADD SWAP1 PUSH2 0x224 SWAP2 SWAP1 PUSH2 0x1049 JUMP JUMPDEST PUSH2 0x72C JUMP JUMPDEST STOP JUMPDEST CALLVALUE DUP1 ISZERO PUSH2 0x237 JUMPI PUSH1 0x0 DUP1 REVERT JUMPDEST POP PUSH2 0x252 PUSH1 0x4 DUP1 CALLDATASIZE SUB DUP2 ADD SWAP1 PUSH2 0x24D SWAP2 SWAP1 PUSH2 0x10DF JUMP JUMPDEST PUSH2 0x91C JUMP JUMPDEST PUSH1 0x40 MLOAD PUSH2 0x25F SWAP2 SWAP1 PUSH2 0x1413 JUMP JUMPDEST PUSH1 0x40 MLOAD DUP1 SWAP2 SUB SWAP1 RETURN JUMPDEST CALLVALUE DUP1 ISZERO PUSH2 0x274 JUMPI PUSH1 0x0 DUP1 REVERT JUMPDEST POP PUSH2 0x28F PUSH1 0x4 DUP1 CALLDATASIZE SUB DUP2 ADD SWAP1 PUSH2 0x28A SWAP2 SWAP1 PUSH2 0xFCE JUMP JUMPDEST PUSH2 0x964 JUMP JUMPDEST PUSH1 0x40 MLOAD PUSH2 0x29C SWAP2 SWAP1 PUSH2 0x154E JUMP JUMPDEST PUSH1 0x40 MLOAD DUP1 SWAP2 SUB SWAP1 RETURN JUMPDEST CALLVALUE DUP1 ISZERO PUSH2 0x2B1 JUMPI PUSH1 0x0 DUP1 REVERT JUMPDEST POP PUSH2 0x2CC PUSH1 0x4 DUP1 CALLDATASIZE SUB DUP2 ADD SWAP1 PUSH2 0x2C7 SWAP2 SWAP1 PUSH2 0x1096 JUMP JUMPDEST PUSH2 0x96F JUMP JUMPDEST PUSH1 0x40 MLOAD PUSH2 0x2DA SWAP3 SWAP2 SWAP1 PUSH2 0x1472 JUMP JUMPDEST PUSH1 0x40 MLOAD DUP1 SWAP2 SUB SWAP1 RETURN JUMPDEST CALLVALUE DUP1 ISZERO PUSH2 0x2EF JUMPI PUSH1 0x0 DUP1 REVERT JUMPDEST POP PUSH2 0x30A PUSH1 0x4 DUP1 CALLDATASIZE SUB DUP2 ADD SWAP1 PUSH2 0x305 SWAP2 SWAP1 PUSH2 0x11C2 JUMP JUMPDEST PUSH2 0xA56 JUMP JUMPDEST STOP JUMPDEST CALLVALUE DUP1 ISZERO PUSH2 0x318 JUMPI PUSH1 0x0 DUP1 REVERT JUMPDEST POP PUSH2 0x333 PUSH1 0x4 DUP1 CALLDATASIZE SUB DUP2 ADD SWAP1 PUSH2 0x32E SWAP2 SWAP1 PUSH2 0x1195 JUMP JUMPDEST PUSH2 0xA5A JUMP JUMPDEST STOP JUMPDEST CALLVALUE DUP1 ISZERO PUSH2 0x341 JUMPI PUSH1 0x0 DUP1 REVERT JUMPDEST POP PUSH2 0x34A PUSH2 0xA5D JUMP JUMPDEST PUSH1 0x40 MLOAD PUSH2 0x357 SWAP2 SWAP1 PUSH2 0x1413 JUMP JUMPDEST PUSH1 0x40 MLOAD DUP1 SWAP2 SUB SWAP1 RETURN JUMPDEST CALLVALUE DUP1 ISZERO PUSH2 0x36C JUMPI PUSH1 0x0 DUP1 REVERT JUMPDEST POP PUSH2 0x375 PUSH2 0xA87 JUMP JUMPDEST PUSH1 0x40 MLOAD PUSH2 0x382 SWAP2 SWAP1 PUSH2 0x154E JUMP JUMPDEST PUSH1 0x40 MLOAD DUP1 SWAP2 SUB SWAP1 RETURN JUMPDEST CALLVALUE DUP1 ISZERO PUSH2 0x397 JUMPI PUSH1 0x0 DUP1 REVERT JUMPDEST POP PUSH2 0x3B2 PUSH1 0x4 DUP1 CALLDATASIZE SUB DUP2 ADD SWAP1 PUSH2 0x3AD SWAP2 SWAP1 PUSH2 0x11C2 JUMP JUMPDEST PUSH2 0xAAF JUMP JUMPDEST STOP JUMPDEST CALLVALUE DUP1 ISZERO PUSH2 0x3C0 JUMPI PUSH1 0x0 DUP1 REVERT JUMPDEST POP PUSH2 0x3C9 PUSH2 0xAB3 JUMP JUMPDEST PUSH1 0x40 MLOAD PUSH2 0x3D6 SWAP2 SWAP1 PUSH2 0x15A0 JUMP JUMPDEST PUSH1 0x40 MLOAD DUP1 SWAP2 SUB SWAP1 RETURN JUMPDEST CALLVALUE DUP1 ISZERO PUSH2 0x3EB JUMPI PUSH1 0x0 DUP1 REVERT JUMPDEST POP PUSH2 0x406 PUSH1 0x4 DUP1 CALLDATASIZE SUB DUP2 ADD SWAP1 PUSH2 0x401 SWAP2 SWAP1 PUSH2 0x1195 JUMP JUMPDEST PUSH2 0xAB8 JUMP JUMPDEST PUSH1 0x40 MLOAD PUSH2 0x416 SWAP5 SWAP4 SWAP3 SWAP2 SWAP1 PUSH2 0x15BB JUMP JUMPDEST PUSH1 0x40 MLOAD DUP1 SWAP2 SUB SWAP1 RETURN JUMPDEST CALLVALUE DUP1 ISZERO PUSH2 0x42B JUMPI PUSH1 0x0 DUP1 REVERT JUMPDEST POP PUSH2 0x446 PUSH1 0x4 DUP1 CALLDATASIZE SUB DUP2 ADD SWAP1 PUSH2 0x441 SWAP2 SWAP1 PUSH2 0x11C2 JUMP JUMPDEST PUSH2 0xAC6 JUMP JUMPDEST STOP JUMPDEST CALLVALUE DUP1 ISZERO PUSH2 0x454 JUMPI PUSH1 0x0 DUP1 REVERT JUMPDEST POP PUSH2 0x46F PUSH1 0x4 DUP1 CALLDATASIZE SUB DUP2 ADD SWAP1 PUSH2 0x46A SWAP2 SWAP1 PUSH2 0x1195 JUMP JUMPDEST PUSH2 0xACA JUMP JUMPDEST PUSH1 0x40 MLOAD PUSH2 0x47C SWAP2 SWAP1 PUSH2 0x1457 JUMP JUMPDEST PUSH1 0x40 MLOAD DUP1 SWAP2 SUB SWAP1 RETURN JUMPDEST CALLVALUE DUP1 ISZERO PUSH2 0x491 JUMPI PUSH1 0x0 DUP1 REVERT JUMPDEST POP PUSH2 0x49A PUSH2 0xAD1 JUMP JUMPDEST PUSH1 0x40 MLOAD PUSH2 0x4A7 SWAP2 SWAP1 PUSH2 0x154E JUMP JUMPDEST PUSH1 0x40 MLOAD DUP1 SWAP2 SUB SWAP1 RETURN JUMPDEST PUSH1 0x0 DUP1 PUSH1 0x60 SWAP1 SWAP2 SWAP3 JUMP JUMPDEST POP POP JUMP JUMPDEST PUSH1 0x0 PUSH32 0x0 SWAP1 POP SWAP1 JUMP JUMPDEST PUSH1 0x0 PUSH1 0x2 PUSH1 0x0 SWAP1 SLOAD SWAP1 PUSH2 0x100 EXP SWAP1 DIV PUSH1 0xFF AND SWAP1 POP SWAP1 JUMP JUMPDEST PUSH32 0x0 PUSH20 0xFFFFFFFFFFFFFFFFFFFFFFFFFFFFFFFFFFFFFFFF AND CALLER PUSH20 0xFFFFFFFFFFFFFFFFFFFFFFFFFFFFFFFFFFFFFFFF AND EQ PUSH2 0x5AF JUMPI CALLER PUSH32 0x0 PUSH1 0x40 MLOAD PUSH32 0x1CF993F400000000000000000000000000000000000000000000000000000000 DUP2 MSTORE PUSH1 0x4 ADD PUSH2 0x5A6 SWAP3 SWAP2 SWAP1 PUSH2 0x142E JUMP JUMPDEST PUSH1 0x40 MLOAD DUP1 SWAP2 SUB SWAP1 REVERT JUMPDEST PUSH2 0x5B9 DUP3 DUP3 PUSH2 0xADB JUMP JUMPDEST POP POP JUMP JUMPDEST PUSH32 0x0 CALLVALUE LT ISZERO PUSH2 0x617 JUMPI PUSH1 0x40 MLOAD PUSH32 0xAEFE484200000000000000000000000000000000000000000000000000000000 DUP2 MSTORE PUSH1 0x4 ADD PUSH1 0x40 MLOAD DUP1 SWAP2 SUB SWAP1 REVERT JUMPDEST PUSH1 0x0 PUSH1 0x1 DUP2 GT ISZERO PUSH2 0x62B JUMPI PUSH2 0x62A PUSH2 0x192B JUMP JUMPDEST JUMPDEST PUSH1 0x2 PUSH1 0x0 SWAP1 SLOAD SWAP1 PUSH2 0x100 EXP SWAP1 DIV PUSH1 0xFF AND PUSH1 0x1 DUP2 GT ISZERO PUSH2 0x64D JUMPI PUSH2 0x64C PUSH2 0x192B JUMP JUMPDEST JUMPDEST EQ PUSH2 0x684 JUMPI PUSH1 0x40 MLOAD PUSH32 0x4FF3426E00000000000000000000000000000000000000000000000000000000 DUP2 MSTORE PUSH1 0x4 ADD PUSH1 0x40 MLOAD DUP1 SWAP2 SUB SWAP1 REVERT JUMPDEST PUSH1 0x1 CALLER SWAP1 DUP1 PUSH1 0x1 DUP2 SLOAD ADD DUP1 DUP3 SSTORE DUP1 SWAP2 POP POP PUSH1 0x1 SWAP1 SUB SWAP1 PUSH1 0x0 MSTORE PUSH1 0x20 PUSH1 0x0 KECCAK256 ADD PUSH1 0x0 SWAP1 SWAP2 SWAP1 SWAP2 SWAP1 SWAP2 PUSH2 0x100 EXP DUP2 SLOAD DUP2 PUSH20 0xFFFFFFFFFFFFFFFFFFFFFFFFFFFFFFFFFFFFFFFF MUL NOT AND SWAP1 DUP4 PUSH20 0xFFFFFFFFFFFFFFFFFFFFFFFFFFFFFFFFFFFFFFFF AND MUL OR SWAP1 SSTORE POP CALLER PUSH20 0xFFFFFFFFFFFFFFFFFFFFFFFFFFFFFFFFFFFFFFFF AND PUSH32 0x805E1D667BDDB8A95F0F09880CF94F403FB596CE79928D9F29B74203BA284D4 PUSH1 0x40 MLOAD PUSH1 0x40 MLOAD DUP1 SWAP2 SUB SWAP1 LOG2 JUMP JUMPDEST PUSH1 0x0 PUSH2 0x746 PUSH1 0x40 MLOAD DUP1 PUSH1 0x20 ADD PUSH1 0x40 MSTORE DUP1 PUSH1 0x0 DUP2 MSTORE POP PUSH2 0x96F JUMP JUMPDEST POP SWAP1 POP DUP1 PUSH2 0x7B5 JUMPI SELFBALANCE PUSH1 0x1 DUP1 SLOAD SWAP1 POP PUSH1 0x2 PUSH1 0x0 SWAP1 SLOAD SWAP1 PUSH2 0x100 EXP SWAP1 DIV PUSH1 0xFF AND PUSH1 0x1 DUP2 GT ISZERO PUSH2 0x777 JUMPI PUSH2 0x776 PUSH2 0x192B JUMP JUMPDEST JUMPDEST PUSH1 0x40 MLOAD PUSH32 0x1FEBB43F00000000000000000000000000000000000000000000000000000000 DUP2 MSTORE PUSH1 0x4 ADD PUSH2 0x7AC SWAP4 SWAP3 SWAP2 SWAP1 PUSH2 0x1569 JUMP JUMPDEST PUSH1 0x40 MLOAD DUP1 SWAP2 SUB SWAP1 REVERT JUMPDEST PUSH1 0x1 PUSH1 0x2 PUSH1 0x0 PUSH2 0x100 EXP DUP2 SLOAD DUP2 PUSH1 0xFF MUL NOT AND SWAP1 DUP4 PUSH1 0x1 DUP2 GT ISZERO PUSH2 0x7DB JUMPI PUSH2 0x7DA PUSH2 0x192B JUMP JUMPDEST JUMPDEST MUL OR SWAP1 SSTORE POP PUSH1 0x0 PUSH32 0x0 PUSH20 0xFFFFFFFFFFFFFFFFFFFFFFFFFFFFFFFFFFFFFFFF AND PUSH4 0x5D3B1D30 PUSH32 0x0 PUSH32 0x0 PUSH1 0x3 PUSH1 0x0 DUP1 SLOAD SWAP1 PUSH2 0x100 EXP SWAP1 DIV PUSH4 0xFFFFFFFF AND PUSH1 0x1 PUSH1 0x40 MLOAD DUP7 PUSH4 0xFFFFFFFF AND PUSH1 0xE0 SHL DUP2 MSTORE PUSH1 0x4 ADD PUSH2 0x895 SWAP6 SWAP5 SWAP4 SWAP3 SWAP2 SWAP1 PUSH2 0x14A2 JUMP JUMPDEST PUSH1 0x20 PUSH1 0x40 MLOAD DUP1 DUP4 SUB DUP2 PUSH1 0x0 DUP8 DUP1 EXTCODESIZE ISZERO DUP1 ISZERO PUSH2 0x8AF JUMPI PUSH1 0x0 DUP1 REVERT JUMPDEST POP GAS CALL ISZERO DUP1 ISZERO PUSH2 0x8C3 JUMPI RETURNDATASIZE PUSH1 0x0 DUP1 RETURNDATACOPY RETURNDATASIZE PUSH1 0x0 REVERT JUMPDEST POP POP POP POP PUSH1 0x40 MLOAD RETURNDATASIZE PUSH1 0x1F NOT PUSH1 0x1F DUP3 ADD AND DUP3 ADD DUP1 PUSH1 0x40 MSTORE POP DUP2 ADD SWAP1 PUSH2 0x8E7 SWAP2 SWAP1 PUSH2 0x110C JUMP JUMPDEST SWAP1 POP DUP1 PUSH32 0xCD6E45C8998311CAB7E9D4385596CAC867E20A0587194B954FA3A731C93CE78B PUSH1 0x40 MLOAD PUSH1 0x40 MLOAD DUP1 SWAP2 SUB SWAP1 LOG2 POP POP POP POP JUMP JUMPDEST PUSH1 0x0 PUSH1 0x1 DUP3 DUP2 SLOAD DUP2 LT PUSH2 0x932 JUMPI PUSH2 0x931 PUSH2 0x195A JUMP JUMPDEST JUMPDEST SWAP1 PUSH1 0x0 MSTORE PUSH1 0x20 PUSH1 0x0 KECCAK256 ADD PUSH1 0x0 SWAP1 SLOAD SWAP1 PUSH2 0x100 EXP SWAP1 DIV PUSH20 0xFFFFFFFFFFFFFFFFFFFFFFFFFFFFFFFFFFFFFFFF AND SWAP1 POP SWAP2 SWAP1 POP JUMP JUMPDEST PUSH1 0x0 SWAP6 SWAP5 POP POP POP POP POP JUMP JUMPDEST PUSH1 0x0 PUSH1 0x60 PUSH1 0x0 DUP1 PUSH1 0x1 DUP2 GT ISZERO PUSH2 0x988 JUMPI PUSH2 0x987 PUSH2 0x192B JUMP JUMPDEST JUMPDEST PUSH1 0x2 PUSH1 0x0 SWAP1 SLOAD SWAP1 PUSH2 0x100 EXP SWAP1 DIV PUSH1 0xFF AND PUSH1 0x1 DUP2 GT ISZERO PUSH2 0x9AA JUMPI PUSH2 0x9A9 PUSH2 0x192B JUMP JUMPDEST JUMPDEST EQ SWAP1 POP PUSH1 0x0 DUP1 PUSH1 0x1 DUP1 SLOAD SWAP1 POP GT SWAP1 POP PUSH1 0x0 DUP1 SELFBALANCE GT SWAP1 POP PUSH1 0x0 PUSH32 0x0 PUSH1 0x3 SLOAD TIMESTAMP PUSH2 0x9F1 SWAP2 SWAP1 PUSH2 0x1722 JUMP JUMPDEST GT SWAP1 POP DUP4 DUP1 ISZERO PUSH2 0x9FE JUMPI POP DUP3 JUMPDEST DUP1 ISZERO PUSH2 0xA07 JUMPI POP DUP2 JUMPDEST DUP1 ISZERO PUSH2 0xA10 JUMPI POP DUP1 JUMPDEST SWAP6 POP DUP6 PUSH1 0x40 MLOAD DUP1 PUSH1 0x40 ADD PUSH1 0x40 MSTORE DUP1 PUSH1 0x3 DUP2 MSTORE PUSH1 0x20 ADD PUSH32 0x3078300000000000000000000000000000000000000000000000000000000000 DUP2 MSTORE POP SWAP6 POP SWAP6 POP POP POP POP POP SWAP2 POP SWAP2 JUMP JUMPDEST POP POP JUMP JUMPDEST POP JUMP JUMPDEST PUSH1 0x0 PUSH1 0x2 PUSH1 0x1 SWAP1 SLOAD SWAP1 PUSH2 0x100 EXP SWAP1 DIV PUSH20 0xFFFFFFFFFFFFFFFFFFFFFFFFFFFFFFFFFFFFFFFF AND SWAP1 POP SWAP1 JUMP JUMPDEST PUSH1 0x0 PUSH32 0x0 SWAP1 POP SWAP1 JUMP JUMPDEST POP POP JUMP JUMPDEST PUSH1 0x0 SWAP1 JUMP JUMPDEST PUSH1 0x0 DUP1 PUSH1 0x0 PUSH1 0x60 SWAP2 SWAP4 POP SWAP2 SWAP4 JUMP JUMPDEST POP POP JUMP JUMPDEST PUSH1 0x0 SWAP2 SWAP1 POP JUMP JUMPDEST PUSH1 0x0 PUSH1 0x3 SLOAD SWAP1 POP SWAP1 JUMP JUMPDEST PUSH1 0x0 PUSH1 0x1 DUP1 SLOAD SWAP1 POP DUP3 PUSH1 0x0 DUP2 MLOAD DUP2 LT PUSH2 0xAF7 JUMPI PUSH2 0xAF6 PUSH2 0x195A JUMP JUMPDEST JUMPDEST PUSH1 0x20 MUL PUSH1 0x20 ADD ADD MLOAD PUSH2 0xB09 SWAP2 SWAP1 PUSH2 0x189C JUMP JUMPDEST SWAP1 POP PUSH1 0x0 PUSH1 0x1 DUP3 DUP2 SLOAD DUP2 LT PUSH2 0xB21 JUMPI PUSH2 0xB20 PUSH2 0x195A JUMP JUMPDEST JUMPDEST SWAP1 PUSH1 0x0 MSTORE PUSH1 0x20 PUSH1 0x0 KECCAK256 ADD PUSH1 0x0 SWAP1 SLOAD SWAP1 PUSH2 0x100 EXP SWAP1 DIV PUSH20 0xFFFFFFFFFFFFFFFFFFFFFFFFFFFFFFFFFFFFFFFF AND SWAP1 POP DUP1 PUSH1 0x2 PUSH1 0x1 PUSH2 0x100 EXP DUP2 SLOAD DUP2 PUSH20 0xFFFFFFFFFFFFFFFFFFFFFFFFFFFFFFFFFFFFFFFF MUL NOT AND SWAP1 DUP4 PUSH20 0xFFFFFFFFFFFFFFFFFFFFFFFFFFFFFFFFFFFFFFFF AND MUL OR SWAP1 SSTORE POP PUSH1 0x0 PUSH8 0xFFFFFFFFFFFFFFFF DUP2 GT ISZERO PUSH2 0xBAA JUMPI PUSH2 0xBA9 PUSH2 0x1989 JUMP JUMPDEST JUMPDEST PUSH1 0x40 MLOAD SWAP1 DUP1 DUP3 MSTORE DUP1 PUSH1 0x20 MUL PUSH1 0x20 ADD DUP3 ADD PUSH1 0x40 MSTORE DUP1 ISZERO PUSH2 0xBD8 JUMPI DUP2 PUSH1 0x20 ADD PUSH1 0x20 DUP3 MUL DUP1 CALLDATASIZE DUP4 CALLDATACOPY DUP1 DUP3 ADD SWAP2 POP POP SWAP1 POP JUMPDEST POP PUSH1 0x1 SWAP1 DUP1 MLOAD SWAP1 PUSH1 0x20 ADD SWAP1 PUSH2 0xBEE SWAP3 SWAP2 SWAP1 PUSH2 0xD30 JUMP JUMPDEST POP PUSH1 0x0 PUSH1 0x2 PUSH1 0x0 PUSH2 0x100 EXP DUP2 SLOAD DUP2 PUSH1 0xFF MUL NOT AND SWAP1 DUP4 PUSH1 0x1 DUP2 GT ISZERO PUSH2 0xC15 JUMPI PUSH2 0xC14 PUSH2 0x192B JUMP JUMPDEST JUMPDEST MUL OR SWAP1 SSTORE POP TIMESTAMP PUSH1 0x3 DUP2 SWAP1 SSTORE POP PUSH1 0x0 DUP2 PUSH20 0xFFFFFFFFFFFFFFFFFFFFFFFFFFFFFFFFFFFFFFFF AND SELFBALANCE PUSH1 0x40 MLOAD PUSH2 0xC47 SWAP1 PUSH2 0x13FE JUMP JUMPDEST PUSH1 0x0 PUSH1 0x40 MLOAD DUP1 DUP4 SUB DUP2 DUP6 DUP8 GAS CALL SWAP3 POP POP POP RETURNDATASIZE DUP1 PUSH1 0x0 DUP2 EQ PUSH2 0xC84 JUMPI PUSH1 0x40 MLOAD SWAP2 POP PUSH1 0x1F NOT PUSH1 0x3F RETURNDATASIZE ADD AND DUP3 ADD PUSH1 0x40 MSTORE RETURNDATASIZE DUP3 MSTORE RETURNDATASIZE PUSH1 0x0 PUSH1 0x20 DUP5 ADD RETURNDATACOPY PUSH2 0xC89 JUMP JUMPDEST PUSH1 0x60 SWAP2 POP JUMPDEST POP POP SWAP1 POP DUP1 PUSH2 0xCC4 JUMPI PUSH1 0x40 MLOAD PUSH32 0xF14C8AF100000000000000000000000000000000000000000000000000000000 DUP2 MSTORE PUSH1 0x4 ADD PUSH1 0x40 MLOAD DUP1 SWAP2 SUB SWAP1 REVERT JUMPDEST PUSH1 0x2 PUSH1 0x1 SWAP1 SLOAD SWAP1 PUSH2 0x100 EXP SWAP1 DIV PUSH20 0xFFFFFFFFFFFFFFFFFFFFFFFFFFFFFFFFFFFFFFFF AND PUSH20 0xFFFFFFFFFFFFFFFFFFFFFFFFFFFFFFFFFFFFFFFF AND PUSH32 0xE1BECBA315BBC7476573420D6218B61DE9AA81AE6F20904B35F4F1E74ECCAC01 PUSH1 0x40 MLOAD PUSH1 0x40 MLOAD DUP1 SWAP2 SUB SWAP1 LOG2 POP POP POP POP POP JUMP JUMPDEST DUP3 DUP1 SLOAD DUP3 DUP3 SSTORE SWAP1 PUSH1 0x0 MSTORE PUSH1 0x20 PUSH1 0x0 KECCAK256 SWAP1 DUP2 ADD SWAP3 DUP3 ISZERO PUSH2 0xDA9 JUMPI SWAP2 PUSH1 0x20 MUL DUP3 ADD JUMPDEST DUP3 DUP2 GT ISZERO PUSH2 0xDA8 JUMPI DUP3 MLOAD DUP3 PUSH1 0x0 PUSH2 0x100 EXP DUP2 SLOAD DUP2 PUSH20 0xFFFFFFFFFFFFFFFFFFFFFFFFFFFFFFFFFFFFFFFF MUL NOT AND SWAP1 DUP4 PUSH20 0xFFFFFFFFFFFFFFFFFFFFFFFFFFFFFFFFFFFFFFFF AND MUL OR SWAP1 SSTORE POP SWAP2 PUSH1 0x20 ADD SWAP2 SWAP1 PUSH1 0x1 ADD SWAP1 PUSH2 0xD50 JUMP JUMPDEST JUMPDEST POP SWAP1 POP PUSH2 0xDB6 SWAP2 SWAP1 PUSH2 0xDBA JUMP JUMPDEST POP SWAP1 JUMP JUMPDEST JUMPDEST DUP1 DUP3 GT ISZERO PUSH2 0xDD3 JUMPI PUSH1 0x0 DUP2 PUSH1 0x0 SWAP1 SSTORE POP PUSH1 0x1 ADD PUSH2 0xDBB JUMP JUMPDEST POP SWAP1 JUMP JUMPDEST PUSH1 0x0 PUSH2 0xDEA PUSH2 0xDE5 DUP5 PUSH2 0x162C JUMP JUMPDEST PUSH2 0x1607 JUMP JUMPDEST SWAP1 POP DUP1 DUP4 DUP3 MSTORE PUSH1 0x20 DUP3 ADD SWAP1 POP DUP3 DUP6 PUSH1 0x20 DUP7 MUL DUP3 ADD GT ISZERO PUSH2 0xE0D JUMPI PUSH2 0xE0C PUSH2 0x19C2 JUMP JUMPDEST JUMPDEST PUSH1 0x0 JUMPDEST DUP6 DUP2 LT ISZERO PUSH2 0xE3D JUMPI DUP2 PUSH2 0xE23 DUP9 DUP3 PUSH2 0xF7A JUMP JUMPDEST DUP5 MSTORE PUSH1 0x20 DUP5 ADD SWAP4 POP PUSH1 0x20 DUP4 ADD SWAP3 POP POP PUSH1 0x1 DUP2 ADD SWAP1 POP PUSH2 0xE10 JUMP JUMPDEST POP POP POP SWAP4 SWAP3 POP POP POP JUMP JUMPDEST PUSH1 0x0 PUSH2 0xE5A PUSH2 0xE55 DUP5 PUSH2 0x1658 JUMP JUMPDEST PUSH2 0x1607 JUMP JUMPDEST SWAP1 POP DUP3 DUP2 MSTORE PUSH1 0x20 DUP2 ADD DUP5 DUP5 DUP5 ADD GT ISZERO PUSH2 0xE76 JUMPI PUSH2 0xE75 PUSH2 0x19C7 JUMP JUMPDEST JUMPDEST PUSH2 0xE81 DUP5 DUP3 DUP6 PUSH2 0x1829 JUMP JUMPDEST POP SWAP4 SWAP3 POP POP POP JUMP JUMPDEST PUSH1 0x0 DUP2 CALLDATALOAD SWAP1 POP PUSH2 0xE98 DUP2 PUSH2 0x19FE JUMP JUMPDEST SWAP3 SWAP2 POP POP JUMP JUMPDEST PUSH1 0x0 DUP3 PUSH1 0x1F DUP4 ADD SLT PUSH2 0xEB3 JUMPI PUSH2 0xEB2 PUSH2 0x19BD JUMP JUMPDEST JUMPDEST DUP2 CALLDATALOAD PUSH2 0xEC3 DUP5 DUP3 PUSH1 0x20 DUP7 ADD PUSH2 0xDD7 JUMP JUMPDEST SWAP2 POP POP SWAP3 SWAP2 POP POP JUMP JUMPDEST PUSH1 0x0 DUP2 CALLDATALOAD SWAP1 POP PUSH2 0xEDB DUP2 PUSH2 0x1A15 JUMP JUMPDEST SWAP3 SWAP2 POP POP JUMP JUMPDEST PUSH1 0x0 DUP1 DUP4 PUSH1 0x1F DUP5 ADD SLT PUSH2 0xEF7 JUMPI PUSH2 0xEF6 PUSH2 0x19BD JUMP JUMPDEST JUMPDEST DUP3 CALLDATALOAD SWAP1 POP PUSH8 0xFFFFFFFFFFFFFFFF DUP2 GT ISZERO PUSH2 0xF14 JUMPI PUSH2 0xF13 PUSH2 0x19B8 JUMP JUMPDEST JUMPDEST PUSH1 0x20 DUP4 ADD SWAP2 POP DUP4 PUSH1 0x1 DUP3 MUL DUP4 ADD GT ISZERO PUSH2 0xF30 JUMPI PUSH2 0xF2F PUSH2 0x19C2 JUMP JUMPDEST JUMPDEST SWAP3 POP SWAP3 SWAP1 POP JUMP JUMPDEST PUSH1 0x0 DUP3 PUSH1 0x1F DUP4 ADD SLT PUSH2 0xF4C JUMPI PUSH2 0xF4B PUSH2 0x19BD JUMP JUMPDEST JUMPDEST DUP2 CALLDATALOAD PUSH2 0xF5C DUP5 DUP3 PUSH1 0x20 DUP7 ADD PUSH2 0xE47 JUMP JUMPDEST SWAP2 POP POP SWAP3 SWAP2 POP POP JUMP JUMPDEST PUSH1 0x0 DUP2 CALLDATALOAD SWAP1 POP PUSH2 0xF74 DUP2 PUSH2 0x1A2C JUMP JUMPDEST SWAP3 SWAP2 POP POP JUMP JUMPDEST PUSH1 0x0 DUP2 CALLDATALOAD SWAP1 POP PUSH2 0xF89 DUP2 PUSH2 0x1A43 JUMP JUMPDEST SWAP3 SWAP2 POP POP JUMP JUMPDEST PUSH1 0x0 DUP2 MLOAD SWAP1 POP PUSH2 0xF9E DUP2 PUSH2 0x1A43 JUMP JUMPDEST SWAP3 SWAP2 POP POP JUMP JUMPDEST PUSH1 0x0 DUP2 CALLDATALOAD SWAP1 POP PUSH2 0xFB3 DUP2 PUSH2 0x1A5A JUMP JUMPDEST SWAP3 SWAP2 POP POP JUMP JUMPDEST PUSH1 0x0 DUP2 CALLDATALOAD SWAP1 POP PUSH2 0xFC8 DUP2 PUSH2 0x1A71 JUMP JUMPDEST SWAP3 SWAP2 POP POP JUMP JUMPDEST PUSH1 0x0 DUP1 PUSH1 0x0 DUP1 PUSH1 0x0 PUSH1 0xA0 DUP7 DUP9 SUB SLT ISZERO PUSH2 0xFEA JUMPI PUSH2 0xFE9 PUSH2 0x19D1 JUMP JUMPDEST JUMPDEST PUSH1 0x0 PUSH2 0xFF8 DUP9 DUP3 DUP10 ADD PUSH2 0xECC JUMP JUMPDEST SWAP6 POP POP PUSH1 0x20 PUSH2 0x1009 DUP9 DUP3 DUP10 ADD PUSH2 0xFB9 JUMP JUMPDEST SWAP5 POP POP PUSH1 0x40 PUSH2 0x101A DUP9 DUP3 DUP10 ADD PUSH2 0xF65 JUMP JUMPDEST SWAP4 POP POP PUSH1 0x60 PUSH2 0x102B DUP9 DUP3 DUP10 ADD PUSH2 0xFA4 JUMP JUMPDEST SWAP3 POP POP PUSH1 0x80 PUSH2 0x103C DUP9 DUP3 DUP10 ADD PUSH2 0xFA4 JUMP JUMPDEST SWAP2 POP POP SWAP3 SWAP6 POP SWAP3 SWAP6 SWAP1 SWAP4 POP JUMP JUMPDEST PUSH1 0x0 DUP1 PUSH1 0x20 DUP4 DUP6 SUB SLT ISZERO PUSH2 0x1060 JUMPI PUSH2 0x105F PUSH2 0x19D1 JUMP JUMPDEST JUMPDEST PUSH1 0x0 DUP4 ADD CALLDATALOAD PUSH8 0xFFFFFFFFFFFFFFFF DUP2 GT ISZERO PUSH2 0x107E JUMPI PUSH2 0x107D PUSH2 0x19CC JUMP JUMPDEST JUMPDEST PUSH2 0x108A DUP6 DUP3 DUP7 ADD PUSH2 0xEE1 JUMP JUMPDEST SWAP3 POP SWAP3 POP POP SWAP3 POP SWAP3 SWAP1 POP JUMP JUMPDEST PUSH1 0x0 PUSH1 0x20 DUP3 DUP5 SUB SLT ISZERO PUSH2 0x10AC JUMPI PUSH2 0x10AB PUSH2 0x19D1 JUMP JUMPDEST JUMPDEST PUSH1 0x0 DUP3 ADD CALLDATALOAD PUSH8 0xFFFFFFFFFFFFFFFF DUP2 GT ISZERO PUSH2 0x10CA JUMPI PUSH2 0x10C9 PUSH2 0x19CC JUMP JUMPDEST JUMPDEST PUSH2 0x10D6 DUP5 DUP3 DUP6 ADD PUSH2 0xF37 JUMP JUMPDEST SWAP2 POP POP SWAP3 SWAP2 POP POP JUMP JUMPDEST PUSH1 0x0 PUSH1 0x20 DUP3 DUP5 SUB SLT ISZERO PUSH2 0x10F5 JUMPI PUSH2 0x10F4 PUSH2 0x19D1 JUMP JUMPDEST JUMPDEST PUSH1 0x0 PUSH2 0x1103 DUP5 DUP3 DUP6 ADD PUSH2 0xF7A JUMP JUMPDEST SWAP2 POP POP SWAP3 SWAP2 POP POP JUMP JUMPDEST PUSH1 0x0 PUSH1 0x20 DUP3 DUP5 SUB SLT ISZERO PUSH2 0x1122 JUMPI PUSH2 0x1121 PUSH2 0x19D1 JUMP JUMPDEST JUMPDEST PUSH1 0x0 PUSH2 0x1130 DUP5 DUP3 DUP6 ADD PUSH2 0xF8F JUMP JUMPDEST SWAP2 POP POP SWAP3 SWAP2 POP POP JUMP JUMPDEST PUSH1 0x0 DUP1 PUSH1 0x40 DUP4 DUP6 SUB SLT ISZERO PUSH2 0x1150 JUMPI PUSH2 0x114F PUSH2 0x19D1 JUMP JUMPDEST JUMPDEST PUSH1 0x0 PUSH2 0x115E DUP6 DUP3 DUP7 ADD PUSH2 0xF7A JUMP JUMPDEST SWAP3 POP POP PUSH1 0x20 DUP4 ADD CALLDATALOAD PUSH8 0xFFFFFFFFFFFFFFFF DUP2 GT ISZERO PUSH2 0x117F JUMPI PUSH2 0x117E PUSH2 0x19CC JUMP JUMPDEST JUMPDEST PUSH2 0x118B DUP6 DUP3 DUP7 ADD PUSH2 0xE9E JUMP JUMPDEST SWAP2 POP POP SWAP3 POP SWAP3 SWAP1 POP JUMP JUMPDEST PUSH1 0x0 PUSH1 0x20 DUP3 DUP5 SUB SLT ISZERO PUSH2 0x11AB JUMPI PUSH2 0x11AA PUSH2 0x19D1 JUMP JUMPDEST JUMPDEST PUSH1 0x0 PUSH2 0x11B9 DUP5 DUP3 DUP6 ADD PUSH2 0xFB9 JUMP JUMPDEST SWAP2 POP POP SWAP3 SWAP2 POP POP JUMP JUMPDEST PUSH1 0x0 DUP1 PUSH1 0x40 DUP4 DUP6 SUB SLT ISZERO PUSH2 0x11D9 JUMPI PUSH2 0x11D8 PUSH2 0x19D1 JUMP JUMPDEST JUMPDEST PUSH1 0x0 PUSH2 0x11E7 DUP6 DUP3 DUP7 ADD PUSH2 0xFB9 JUMP JUMPDEST SWAP3 POP POP PUSH1 0x20 PUSH2 0x11F8 DUP6 DUP3 DUP7 ADD PUSH2 0xE89 JUMP JUMPDEST SWAP2 POP POP SWAP3 POP SWAP3 SWAP1 POP JUMP JUMPDEST PUSH1 0x0 PUSH2 0x120E DUP4 DUP4 PUSH2 0x1232 JUMP JUMPDEST PUSH1 0x20 DUP4 ADD SWAP1 POP SWAP3 SWAP2 POP POP JUMP JUMPDEST PUSH1 0x0 PUSH2 0x1226 DUP4 DUP4 PUSH2 0x131B JUMP JUMPDEST PUSH1 0x20 DUP4 ADD SWAP1 POP SWAP3 SWAP2 POP POP JUMP JUMPDEST PUSH2 0x123B DUP2 PUSH2 0x1756 JUMP JUMPDEST DUP3 MSTORE POP POP JUMP JUMPDEST PUSH2 0x124A DUP2 PUSH2 0x1756 JUMP JUMPDEST DUP3 MSTORE POP POP JUMP JUMPDEST PUSH1 0x0 PUSH2 0x125B DUP3 PUSH2 0x16A9 JUMP JUMPDEST PUSH2 0x1265 DUP2 DUP6 PUSH2 0x16E4 JUMP JUMPDEST SWAP4 POP PUSH2 0x1270 DUP4 PUSH2 0x1689 JUMP JUMPDEST DUP1 PUSH1 0x0 JUMPDEST DUP4 DUP2 LT ISZERO PUSH2 0x12A1 JUMPI DUP2 MLOAD PUSH2 0x1288 DUP9 DUP3 PUSH2 0x1202 JUMP JUMPDEST SWAP8 POP PUSH2 0x1293 DUP4 PUSH2 0x16CA JUMP JUMPDEST SWAP3 POP POP PUSH1 0x1 DUP2 ADD SWAP1 POP PUSH2 0x1274 JUMP JUMPDEST POP DUP6 SWAP4 POP POP POP POP SWAP3 SWAP2 POP POP JUMP JUMPDEST PUSH1 0x0 PUSH2 0x12B9 DUP3 PUSH2 0x16B4 JUMP JUMPDEST PUSH2 0x12C3 DUP2 DUP6 PUSH2 0x16F5 JUMP JUMPDEST SWAP4 POP PUSH2 0x12CE DUP4 PUSH2 0x1699 JUMP JUMPDEST DUP1 PUSH1 0x0 JUMPDEST DUP4 DUP2 LT ISZERO PUSH2 0x12FF JUMPI DUP2 MLOAD PUSH2 0x12E6 DUP9 DUP3 PUSH2 0x121A JUMP JUMPDEST SWAP8 POP PUSH2 0x12F1 DUP4 PUSH2 0x16D7 JUMP JUMPDEST SWAP3 POP POP PUSH1 0x1 DUP2 ADD SWAP1 POP PUSH2 0x12D2 JUMP JUMPDEST POP DUP6 SWAP4 POP POP POP POP SWAP3 SWAP2 POP POP JUMP JUMPDEST PUSH2 0x1315 DUP2 PUSH2 0x1768 JUMP JUMPDEST DUP3 MSTORE POP POP JUMP JUMPDEST PUSH2 0x1324 DUP2 PUSH2 0x1774 JUMP JUMPDEST DUP3 MSTORE POP POP JUMP JUMPDEST PUSH2 0x1333 DUP2 PUSH2 0x1774 JUMP JUMPDEST DUP3 MSTORE POP POP JUMP JUMPDEST PUSH1 0x0 PUSH2 0x1344 DUP3 PUSH2 0x16BF JUMP JUMPDEST PUSH2 0x134E DUP2 DUP6 PUSH2 0x1706 JUMP JUMPDEST SWAP4 POP PUSH2 0x135E DUP2 DUP6 PUSH1 0x20 DUP7 ADD PUSH2 0x1838 JUMP JUMPDEST PUSH2 0x1367 DUP2 PUSH2 0x19D6 JUMP JUMPDEST DUP5 ADD SWAP2 POP POP SWAP3 SWAP2 POP POP JUMP JUMPDEST PUSH2 0x137B DUP2 PUSH2 0x1805 JUMP JUMPDEST DUP3 MSTORE POP POP JUMP JUMPDEST PUSH1 0x0 PUSH2 0x138E PUSH1 0x0 DUP4 PUSH2 0x1717 JUMP JUMPDEST SWAP2 POP PUSH2 0x1399 DUP3 PUSH2 0x19E7 JUMP JUMPDEST PUSH1 0x0 DUP3 ADD SWAP1 POP SWAP2 SWAP1 POP JUMP JUMPDEST PUSH2 0x13AD DUP2 PUSH2 0x1791 JUMP JUMPDEST DUP3 MSTORE POP POP JUMP JUMPDEST PUSH2 0x13BC DUP2 PUSH2 0x1817 JUMP JUMPDEST DUP3 MSTORE POP POP JUMP JUMPDEST PUSH2 0x13CB DUP2 PUSH2 0x17BF JUMP JUMPDEST DUP3 MSTORE POP POP JUMP JUMPDEST PUSH2 0x13DA DUP2 PUSH2 0x17C9 JUMP JUMPDEST DUP3 MSTORE POP POP JUMP JUMPDEST PUSH2 0x13E9 DUP2 PUSH2 0x17D9 JUMP JUMPDEST DUP3 MSTORE POP POP JUMP JUMPDEST PUSH2 0x13F8 DUP2 PUSH2 0x17ED JUMP JUMPDEST DUP3 MSTORE POP POP JUMP JUMPDEST PUSH1 0x0 PUSH2 0x1409 DUP3 PUSH2 0x1381 JUMP JUMPDEST SWAP2 POP DUP2 SWAP1 POP SWAP2 SWAP1 POP JUMP JUMPDEST PUSH1 0x0 PUSH1 0x20 DUP3 ADD SWAP1 POP PUSH2 0x1428 PUSH1 0x0 DUP4 ADD DUP5 PUSH2 0x1241 JUMP JUMPDEST SWAP3 SWAP2 POP POP JUMP JUMPDEST PUSH1 0x0 PUSH1 0x40 DUP3 ADD SWAP1 POP PUSH2 0x1443 PUSH1 0x0 DUP4 ADD DUP6 PUSH2 0x1241 JUMP JUMPDEST PUSH2 0x1450 PUSH1 0x20 DUP4 ADD DUP5 PUSH2 0x1241 JUMP JUMPDEST SWAP4 SWAP3 POP POP POP JUMP JUMPDEST PUSH1 0x0 PUSH1 0x20 DUP3 ADD SWAP1 POP PUSH2 0x146C PUSH1 0x0 DUP4 ADD DUP5 PUSH2 0x130C JUMP JUMPDEST SWAP3 SWAP2 POP POP JUMP JUMPDEST PUSH1 0x0 PUSH1 0x40 DUP3 ADD SWAP1 POP PUSH2 0x1487 PUSH1 0x0 DUP4 ADD DUP6 PUSH2 0x130C JUMP JUMPDEST DUP2 DUP2 SUB PUSH1 0x20 DUP4 ADD MSTORE PUSH2 0x1499 DUP2 DUP5 PUSH2 0x1339 JUMP JUMPDEST SWAP1 POP SWAP4 SWAP3 POP POP POP JUMP JUMPDEST PUSH1 0x0 PUSH1 0xA0 DUP3 ADD SWAP1 POP PUSH2 0x14B7 PUSH1 0x0 DUP4 ADD DUP9 PUSH2 0x132A JUMP JUMPDEST PUSH2 0x14C4 PUSH1 0x20 DUP4 ADD DUP8 PUSH2 0x13E0 JUMP JUMPDEST PUSH2 0x14D1 PUSH1 0x40 DUP4 ADD DUP7 PUSH2 0x13A4 JUMP JUMPDEST PUSH2 0x14DE PUSH1 0x60 DUP4 ADD DUP6 PUSH2 0x13D1 JUMP JUMPDEST PUSH2 0x14EB PUSH1 0x80 DUP4 ADD DUP5 PUSH2 0x13B3 JUMP JUMPDEST SWAP7 SWAP6 POP POP POP POP POP POP JUMP JUMPDEST PUSH1 0x0 PUSH1 0x20 DUP3 ADD SWAP1 POP PUSH2 0x150A PUSH1 0x0 DUP4 ADD DUP5 PUSH2 0x1372 JUMP JUMPDEST SWAP3 SWAP2 POP POP JUMP JUMPDEST PUSH1 0x0 PUSH1 0x60 DUP3 ADD SWAP1 POP PUSH2 0x1525 PUSH1 0x0 DUP4 ADD DUP7 PUSH2 0x13A4 JUMP JUMPDEST PUSH2 0x1532 PUSH1 0x20 DUP4 ADD DUP6 PUSH2 0x13D1 JUMP JUMPDEST DUP2 DUP2 SUB PUSH1 0x40 DUP4 ADD MSTORE PUSH2 0x1544 DUP2 DUP5 PUSH2 0x12AE JUMP JUMPDEST SWAP1 POP SWAP5 SWAP4 POP POP POP POP JUMP JUMPDEST PUSH1 0x0 PUSH1 0x20 DUP3 ADD SWAP1 POP PUSH2 0x1563 PUSH1 0x0 DUP4 ADD DUP5 PUSH2 0x13C2 JUMP JUMPDEST SWAP3 SWAP2 POP POP JUMP JUMPDEST PUSH1 0x0 PUSH1 0x60 DUP3 ADD SWAP1 POP PUSH2 0x157E PUSH1 0x0 DUP4 ADD DUP7 PUSH2 0x13C2 JUMP JUMPDEST PUSH2 0x158B PUSH1 0x20 DUP4 ADD DUP6 PUSH2 0x13C2 JUMP JUMPDEST PUSH2 0x1598 PUSH1 0x40 DUP4 ADD DUP5 PUSH2 0x13C2 JUMP JUMPDEST SWAP5 SWAP4 POP POP POP POP JUMP JUMPDEST PUSH1 0x0 PUSH1 0x20 DUP3 ADD SWAP1 POP PUSH2 0x15B5 PUSH1 0x0 DUP4 ADD DUP5 PUSH2 0x13E0 JUMP JUMPDEST SWAP3 SWAP2 POP POP JUMP JUMPDEST PUSH1 0x0 PUSH1 0x80 DUP3 ADD SWAP1 POP PUSH2 0x15D0 PUSH1 0x0 DUP4 ADD DUP8 PUSH2 0x13EF JUMP JUMPDEST PUSH2 0x15DD PUSH1 0x20 DUP4 ADD DUP7 PUSH2 0x13E0 JUMP JUMPDEST PUSH2 0x15EA PUSH1 0x40 DUP4 ADD DUP6 PUSH2 0x1241 JUMP JUMPDEST DUP2 DUP2 SUB PUSH1 0x60 DUP4 ADD MSTORE PUSH2 0x15FC DUP2 DUP5 PUSH2 0x1250 JUMP JUMPDEST SWAP1 POP SWAP6 SWAP5 POP POP POP POP POP JUMP JUMPDEST PUSH1 0x0 PUSH2 0x1611 PUSH2 0x1622 JUMP JUMPDEST SWAP1 POP PUSH2 0x161D DUP3 DUP3 PUSH2 0x186B JUMP JUMPDEST SWAP2 SWAP1 POP JUMP JUMPDEST PUSH1 0x0 PUSH1 0x40 MLOAD SWAP1 POP SWAP1 JUMP JUMPDEST PUSH1 0x0 PUSH8 0xFFFFFFFFFFFFFFFF DUP3 GT ISZERO PUSH2 0x1647 JUMPI PUSH2 0x1646 PUSH2 0x1989 JUMP JUMPDEST JUMPDEST PUSH1 0x20 DUP3 MUL SWAP1 POP PUSH1 0x20 DUP2 ADD SWAP1 POP SWAP2 SWAP1 POP JUMP JUMPDEST PUSH1 0x0 PUSH8 0xFFFFFFFFFFFFFFFF DUP3 GT ISZERO PUSH2 0x1673 JUMPI PUSH2 0x1672 PUSH2 0x1989 JUMP JUMPDEST JUMPDEST PUSH2 0x167C DUP3 PUSH2 0x19D6 JUMP JUMPDEST SWAP1 POP PUSH1 0x20 DUP2 ADD SWAP1 POP SWAP2 SWAP1 POP JUMP JUMPDEST PUSH1 0x0 DUP2 SWAP1 POP PUSH1 0x20 DUP3 ADD SWAP1 POP SWAP2 SWAP1 POP JUMP JUMPDEST PUSH1 0x0 DUP2 SWAP1 POP PUSH1 0x20 DUP3 ADD SWAP1 POP SWAP2 SWAP1 POP JUMP JUMPDEST PUSH1 0x0 DUP2 MLOAD SWAP1 POP SWAP2 SWAP1 POP JUMP JUMPDEST PUSH1 0x0 DUP2 MLOAD SWAP1 POP SWAP2 SWAP1 POP JUMP JUMPDEST PUSH1 0x0 DUP2 MLOAD SWAP1 POP SWAP2 SWAP1 POP JUMP JUMPDEST PUSH1 0x0 PUSH1 0x20 DUP3 ADD SWAP1 POP SWAP2 SWAP1 POP JUMP JUMPDEST PUSH1 0x0 PUSH1 0x20 DUP3 ADD SWAP1 POP SWAP2 SWAP1 POP JUMP JUMPDEST PUSH1 0x0 DUP3 DUP3 MSTORE PUSH1 0x20 DUP3 ADD SWAP1 POP SWAP3 SWAP2 POP POP JUMP JUMPDEST PUSH1 0x0 DUP3 DUP3 MSTORE PUSH1 0x20 DUP3 ADD SWAP1 POP SWAP3 SWAP2 POP POP JUMP JUMPDEST PUSH1 0x0 DUP3 DUP3 MSTORE PUSH1 0x20 DUP3 ADD SWAP1 POP SWAP3 SWAP2 POP POP JUMP JUMPDEST PUSH1 0x0 DUP2 SWAP1 POP SWAP3 SWAP2 POP POP JUMP JUMPDEST PUSH1 0x0 PUSH2 0x172D DUP3 PUSH2 0x17BF JUMP JUMPDEST SWAP2 POP PUSH2 0x1738 DUP4 PUSH2 0x17BF JUMP JUMPDEST SWAP3 POP DUP3 DUP3 LT ISZERO PUSH2 0x174B JUMPI PUSH2 0x174A PUSH2 0x18CD JUMP JUMPDEST JUMPDEST DUP3 DUP3 SUB SWAP1 POP SWAP3 SWAP2 POP POP JUMP JUMPDEST PUSH1 0x0 PUSH2 0x1761 DUP3 PUSH2 0x179F JUMP JUMPDEST SWAP1 POP SWAP2 SWAP1 POP JUMP JUMPDEST PUSH1 0x0 DUP2 ISZERO ISZERO SWAP1 POP SWAP2 SWAP1 POP JUMP JUMPDEST PUSH1 0x0 DUP2 SWAP1 POP SWAP2 SWAP1 POP JUMP JUMPDEST PUSH1 0x0 DUP2 SWAP1 POP PUSH2 0x178C DUP3 PUSH2 0x19EA JUMP JUMPDEST SWAP2 SWAP1 POP JUMP JUMPDEST PUSH1 0x0 PUSH2 0xFFFF DUP3 AND SWAP1 POP SWAP2 SWAP1 POP JUMP JUMPDEST PUSH1 0x0 PUSH20 0xFFFFFFFFFFFFFFFFFFFFFFFFFFFFFFFFFFFFFFFF DUP3 AND SWAP1 POP SWAP2 SWAP1 POP JUMP JUMPDEST PUSH1 0x0 DUP2 SWAP1 POP SWAP2 SWAP1 POP JUMP JUMPDEST PUSH1 0x0 PUSH4 0xFFFFFFFF DUP3 AND SWAP1 POP SWAP2 SWAP1 POP JUMP JUMPDEST PUSH1 0x0 PUSH8 0xFFFFFFFFFFFFFFFF DUP3 AND SWAP1 POP SWAP2 SWAP1 POP JUMP JUMPDEST PUSH1 0x0 PUSH12 0xFFFFFFFFFFFFFFFFFFFFFFFF DUP3 AND SWAP1 POP SWAP2 SWAP1 POP JUMP JUMPDEST PUSH1 0x0 PUSH2 0x1810 DUP3 PUSH2 0x177E JUMP JUMPDEST SWAP1 POP SWAP2 SWAP1 POP JUMP JUMPDEST PUSH1 0x0 PUSH2 0x1822 DUP3 PUSH2 0x1791 JUMP JUMPDEST SWAP1 POP SWAP2 SWAP1 POP JUMP JUMPDEST DUP3 DUP2 DUP4 CALLDATACOPY PUSH1 0x0 DUP4 DUP4 ADD MSTORE POP POP POP JUMP JUMPDEST PUSH1 0x0 JUMPDEST DUP4 DUP2 LT ISZERO PUSH2 0x1856 JUMPI DUP1 DUP3 ADD MLOAD DUP2 DUP5 ADD MSTORE PUSH1 0x20 DUP2 ADD SWAP1 POP PUSH2 0x183B JUMP JUMPDEST DUP4 DUP2 GT ISZERO PUSH2 0x1865 JUMPI PUSH1 0x0 DUP5 DUP5 ADD MSTORE JUMPDEST POP POP POP POP JUMP JUMPDEST PUSH2 0x1874 DUP3 PUSH2 0x19D6 JUMP JUMPDEST DUP2 ADD DUP2 DUP2 LT PUSH8 0xFFFFFFFFFFFFFFFF DUP3 GT OR ISZERO PUSH2 0x1893 JUMPI PUSH2 0x1892 PUSH2 0x1989 JUMP JUMPDEST JUMPDEST DUP1 PUSH1 0x40 MSTORE POP POP POP JUMP JUMPDEST PUSH1 0x0 PUSH2 0x18A7 DUP3 PUSH2 0x17BF JUMP JUMPDEST SWAP2 POP PUSH2 0x18B2 DUP4 PUSH2 0x17BF JUMP JUMPDEST SWAP3 POP DUP3 PUSH2 0x18C2 JUMPI PUSH2 0x18C1 PUSH2 0x18FC JUMP JUMPDEST JUMPDEST DUP3 DUP3 MOD SWAP1 POP SWAP3 SWAP2 POP POP JUMP JUMPDEST PUSH32 0x4E487B7100000000000000000000000000000000000000000000000000000000 PUSH1 0x0 MSTORE PUSH1 0x11 PUSH1 0x4 MSTORE PUSH1 0x24 PUSH1 0x0 REVERT JUMPDEST PUSH32 0x4E487B7100000000000000000000000000000000000000000000000000000000 PUSH1 0x0 MSTORE PUSH1 0x12 PUSH1 0x4 MSTORE PUSH1 0x24 PUSH1 0x0 REVERT JUMPDEST PUSH32 0x4E487B7100000000000000000000000000000000000000000000000000000000 PUSH1 0x0 MSTORE PUSH1 0x21 PUSH1 0x4 MSTORE PUSH1 0x24 PUSH1 0x0 REVERT JUMPDEST PUSH32 0x4E487B7100000000000000000000000000000000000000000000000000000000 PUSH1 0x0 MSTORE PUSH1 0x32 PUSH1 0x4 MSTORE PUSH1 0x24 PUSH1 0x0 REVERT JUMPDEST PUSH32 0x4E487B7100000000000000000000000000000000000000000000000000000000 PUSH1 0x0 MSTORE PUSH1 0x41 PUSH1 0x4 MSTORE PUSH1 0x24 PUSH1 0x0 REVERT JUMPDEST PUSH1 0x0 DUP1 REVERT JUMPDEST PUSH1 0x0 DUP1 REVERT JUMPDEST PUSH1 0x0 DUP1 REVERT JUMPDEST PUSH1 0x0 DUP1 REVERT JUMPDEST PUSH1 0x0 DUP1 REVERT JUMPDEST PUSH1 0x0 DUP1 REVERT JUMPDEST PUSH1 0x0 PUSH1 0x1F NOT PUSH1 0x1F DUP4 ADD AND SWAP1 POP SWAP2 SWAP1 POP JUMP JUMPDEST POP JUMP JUMPDEST PUSH1 0x2 DUP2 LT PUSH2 0x19FB JUMPI PUSH2 0x19FA PUSH2 0x192B JUMP JUMPDEST JUMPDEST POP JUMP JUMPDEST PUSH2 0x1A07 DUP2 PUSH2 0x1756 JUMP JUMPDEST DUP2 EQ PUSH2 0x1A12 JUMPI PUSH1 0x0 DUP1 REVERT JUMPDEST POP JUMP JUMPDEST PUSH2 0x1A1E DUP2 PUSH2 0x1774 JUMP JUMPDEST DUP2 EQ PUSH2 0x1A29 JUMPI PUSH1 0x0 DUP1 REVERT JUMPDEST POP JUMP JUMPDEST PUSH2 0x1A35 DUP2 PUSH2 0x1791 JUMP JUMPDEST DUP2 EQ PUSH2 0x1A40 JUMPI PUSH1 0x0 DUP1 REVERT JUMPDEST POP JUMP JUMPDEST PUSH2 0x1A4C DUP2 PUSH2 0x17BF JUMP JUMPDEST DUP2 EQ PUSH2 0x1A57 JUMPI PUSH1 0x0 DUP1 REVERT JUMPDEST POP JUMP JUMPDEST PUSH2 0x1A63 DUP2 PUSH2 0x17C9 JUMP JUMPDEST DUP2 EQ PUSH2 0x1A6E JUMPI PUSH1 0x0 DUP1 REVERT JUMPDEST POP JUMP JUMPDEST PUSH2 0x1A7A DUP2 PUSH2 0x17D9 JUMP JUMPDEST DUP2 EQ PUSH2 0x1A85 JUMPI PUSH1 0x0 DUP1 REVERT JUMPDEST POP JUMP INVALID LOG2 PUSH5 0x6970667358 0x22 SLT KECCAK256 0xC5 0xED 0xC9 0xE7 LOG0 SIGNEXTEND 0xE5 SWAP10 GAS DUP5 0xDB 0xD4 PUSH22 0xFB7F87D150C35D7FC25364BF7DC07C2589D36664736F PUSH13 0x63430008070033000000000000 "},"gasEstimates":{"creation":{"codeDepositCost":"1369200","executionCost":"infinite","totalCost":"infinite"},"external":{"acceptSubscriptionOwnerTransfer(uint64)":"457","addConsumer(uint64,address)":"657","cancelSubscription(uint64,address)":"700","checkUpkeep(bytes)":"infinite","createSubscription()":"357","enterRaffle()":"infinite","getEntranceFee()":"infinite","getInterval()":"infinite","getLatestTimestamp()":"2547","getPlayers(uint256)":"5034","getRaffleState()":"2658","getRequestConfig()":"infinite","getSubscription(uint64)":"infinite","getWinner()":"2639","pendingRequestExists(uint64)":"694","performUpkeep(bytes)":"infinite","rawFulfillRandomWords(uint256,uint256[])":"infinite","removeConsumer(uint64,address)":"745","requestRandomWords(bytes32,uint64,uint16,uint32,uint32)":"infinite","requestSubscriptionOwnerTransfer(uint64,address)":"680"},"internal":{"fulfillRandomWords(uint256,uint256[] memory)":"infinite"}},"methodIdentifiers":{"acceptSubscriptionOwnerTransfer(uint64)":"82359740","addConsumer(uint64,address)":"7341c10c","cancelSubscription(uint64,address)":"d7ae1d30","checkUpkeep(bytes)":"6e04ff0d","createSubscription()":"a21a23e4","enterRaffle()":"2cfcc539","getEntranceFee()":"09bc33a7","getInterval()":"91ad27b4","getLatestTimestamp()":"f43b52cb","getPlayers(uint256)":"460e2049","getRaffleState()":"115cbaf5","getRequestConfig()":"00012291","getSubscription(uint64)":"a47c7696","getWinner()":"8e7ea5b2","pendingRequestExists(uint64)":"e82ad7d4","performUpkeep(bytes)":"4585e33b","rawFulfillRandomWords(uint256,uint256[])":"1fe543e3","removeConsumer(uint64,address)":"9f87fad7","requestRandomWords(bytes32,uint64,uint16,uint32,uint32)":"5d3b1d30","requestSubscriptionOwnerTransfer(uint64,address)":"04c357cb"}},"storageLayout":{"storage":[{"astId":210,"contract":"contracts/Raffle.sol:Raffle","label":"s_callbackGasLimit","offset":0,"slot":"0","type":"t_uint32"},{"astId":221,"contract":"contracts/Raffle.sol:Raffle","label":"s_players","offset":0,"slot":"1","type":"t_array(t_address_payable)dyn_storage"},{"astId":226,"contract":"contracts/Raffle.sol:Raffle","label":"s_raffleState","offset":0,"slot":"2","type":"t_enum(RaffleState)200"},{"astId":228,"contract":"contracts/Raffle.sol:Raffle","label":"s_recentWinner","offset":1,"slot":"2","type":"t_address"},{"astId":230,"contract":"contracts/Raffle.sol:Raffle","label":"s_lastTimestamp","offset":0,"slot":"3","type":"t_uint256"}],"types":{"t_address":{"encoding":"inplace","label":"address","numberOfBytes":"20"},"t_address_payable":{"encoding":"inplace","label":"address payable","numberOfBytes":"20"},"t_array(t_address_payable)dyn_storage":{"base":"t_address_payable","encoding":"dynamic_array","label":"address payable[]","numberOfBytes":"32"},"t_enum(RaffleState)200":{"encoding":"inplace","label":"enum Raffle.RaffleState","numberOfBytes":"1"},"t_uint256":{"encoding":"inplace","label":"uint256","numberOfBytes":"32"},"t_uint32":{"encoding":"inplace","label":"uint32","numberOfBytes":"4"}}},"userdoc":{"events":{"RaffleEnter(address)":{"notice":"Events "}},"kind":"user","methods":{"acceptSubscriptionOwnerTransfer(uint64)":{"notice":"Request subscription owner transfer."},"addConsumer(uint64,address)":{"notice":"Add a consumer to a VRF subscription."},"cancelSubscription(uint64,address)":{"notice":"Cancel a subscription"},"checkUpkeep(bytes)":{"notice":"this  function is a chainlink VRF V2 checkUpkeep checks whether there is the basic requirements to keep this contract functional performUpkeep performs the function of finding the randomNumber and it automates the process of finding randomnumber"},"constructor":{"notice":"FUNCTIONS "},"createSubscription()":{"notice":"Create a VRF subscription."},"getRequestConfig()":{"notice":"Get configuration relevant for making requests"},"getSubscription(uint64)":{"notice":"Get a VRF subscription."},"removeConsumer(uint64,address)":{"notice":"Remove a consumer from a VRF subscription."},"requestRandomWords(bytes32,uint64,uint16,uint32,uint32)":{"notice":"Request a set of random words."},"requestSubscriptionOwnerTransfer(uint64,address)":{"notice":"Request subscription owner transfer."}},"version":1}}}}