{
  "_format": "hh-sol-artifact-1",
  "contractName": "Raffle",
  "sourceName": "contracts/Raffle.sol",
  "abi": [
    {
      "inputs": [
        {
          "internalType": "address",
          "name": "vrfCoordinatorV2",
          "type": "address"
        },
        {
          "internalType": "uint64",
          "name": "subscriptionId",
          "type": "uint64"
        },
        {
          "internalType": "bytes32",
          "name": "gasLane",
          "type": "bytes32"
        },
        {
          "internalType": "uint256",
          "name": "interval",
          "type": "uint256"
        },
        {
          "internalType": "uint32",
          "name": "callbackGasLimit",
          "type": "uint32"
        },
        {
          "internalType": "uint256",
          "name": "entranceFee",
          "type": "uint256"
        }
      ],
      "stateMutability": "nonpayable",
      "type": "constructor"
    },
    {
      "inputs": [
        {
          "internalType": "address",
          "name": "have",
          "type": "address"
        },
        {
          "internalType": "address",
          "name": "want",
          "type": "address"
        }
      ],
      "name": "OnlyCoordinatorCanFulfill",
      "type": "error"
    },
    {
      "inputs": [],
      "name": "Raffle___notEnoughFee",
      "type": "error"
    },
    {
      "inputs": [],
      "name": "Raffle__notOpen",
      "type": "error"
    },
    {
      "inputs": [],
      "name": "Raffle__upkeepFailed",
      "type": "error"
    },
    {
      "inputs": [],
      "name": "Raffle_withdrawalFailed",
      "type": "error"
    },
    {
      "anonymous": false,
      "inputs": [
        {
          "indexed": true,
          "internalType": "address",
          "name": "player",
          "type": "address"
        }
      ],
      "name": "RaffleEnter",
      "type": "event"
    },
    {
      "anonymous": false,
      "inputs": [
        {
          "indexed": true,
          "internalType": "uint256",
          "name": "requestId",
          "type": "uint256"
        }
      ],
      "name": "RequestedRaffleWinner",
      "type": "event"
    },
    {
      "anonymous": false,
      "inputs": [
        {
          "indexed": true,
          "internalType": "address",
          "name": "player",
          "type": "address"
        }
      ],
      "name": "getRecentWinner",
      "type": "event"
    },
    {
      "inputs": [
        {
          "internalType": "uint64",
          "name": "subId",
          "type": "uint64"
        }
      ],
      "name": "acceptSubscriptionOwnerTransfer",
      "outputs": [],
      "stateMutability": "nonpayable",
      "type": "function"
    },
    {
      "inputs": [
        {
          "internalType": "uint64",
          "name": "subId",
          "type": "uint64"
        },
        {
          "internalType": "address",
          "name": "consumer",
          "type": "address"
        }
      ],
      "name": "addConsumer",
      "outputs": [],
      "stateMutability": "nonpayable",
      "type": "function"
    },
    {
      "inputs": [
        {
          "internalType": "uint64",
          "name": "subId",
          "type": "uint64"
        },
        {
          "internalType": "address",
          "name": "to",
          "type": "address"
        }
      ],
      "name": "cancelSubscription",
      "outputs": [],
      "stateMutability": "nonpayable",
      "type": "function"
    },
    {
      "inputs": [
        {
          "internalType": "bytes",
          "name": "",
          "type": "bytes"
        }
      ],
      "name": "checkUpkeep",
      "outputs": [
        {
          "internalType": "bool",
          "name": "upkeepNeeded",
          "type": "bool"
        },
        {
          "internalType": "bytes",
          "name": "",
          "type": "bytes"
        }
      ],
      "stateMutability": "view",
      "type": "function"
    },
    {
      "inputs": [],
      "name": "createSubscription",
      "outputs": [
        {
          "internalType": "uint64",
          "name": "subId",
          "type": "uint64"
        }
      ],
      "stateMutability": "nonpayable",
      "type": "function"
    },
    {
      "inputs": [],
      "name": "enterRaffle",
      "outputs": [],
      "stateMutability": "payable",
      "type": "function"
    },
    {
      "inputs": [],
      "name": "getRequestConfig",
      "outputs": [
        {
          "internalType": "uint16",
          "name": "",
          "type": "uint16"
        },
        {
          "internalType": "uint32",
          "name": "",
          "type": "uint32"
        },
        {
          "internalType": "bytes32[]",
          "name": "",
          "type": "bytes32[]"
        }
      ],
      "stateMutability": "view",
      "type": "function"
    },
    {
      "inputs": [
        {
          "internalType": "uint64",
          "name": "subId",
          "type": "uint64"
        }
      ],
      "name": "getSubscription",
      "outputs": [
        {
          "internalType": "uint96",
          "name": "balance",
          "type": "uint96"
        },
        {
          "internalType": "uint64",
          "name": "reqCount",
          "type": "uint64"
        },
        {
          "internalType": "address",
          "name": "owner",
          "type": "address"
        },
        {
          "internalType": "address[]",
          "name": "consumers",
          "type": "address[]"
        }
      ],
      "stateMutability": "view",
      "type": "function"
    },
    {
      "inputs": [
        {
          "internalType": "uint64",
          "name": "subId",
          "type": "uint64"
        }
      ],
      "name": "pendingRequestExists",
      "outputs": [
        {
          "internalType": "bool",
          "name": "",
          "type": "bool"
        }
      ],
      "stateMutability": "view",
      "type": "function"
    },
    {
      "inputs": [
        {
          "internalType": "bytes",
          "name": "",
          "type": "bytes"
        }
      ],
      "name": "performUpkeep",
      "outputs": [],
      "stateMutability": "nonpayable",
      "type": "function"
    },
    {
      "inputs": [
        {
          "internalType": "uint256",
          "name": "requestId",
          "type": "uint256"
        },
        {
          "internalType": "uint256[]",
          "name": "randomWords",
          "type": "uint256[]"
        }
      ],
      "name": "rawFulfillRandomWords",
      "outputs": [],
      "stateMutability": "nonpayable",
      "type": "function"
    },
    {
      "inputs": [
        {
          "internalType": "uint64",
          "name": "subId",
          "type": "uint64"
        },
        {
          "internalType": "address",
          "name": "consumer",
          "type": "address"
        }
      ],
      "name": "removeConsumer",
      "outputs": [],
      "stateMutability": "nonpayable",
      "type": "function"
    },
    {
      "inputs": [
        {
          "internalType": "bytes32",
          "name": "keyHash",
          "type": "bytes32"
        },
        {
          "internalType": "uint64",
          "name": "subId",
          "type": "uint64"
        },
        {
          "internalType": "uint16",
          "name": "minimumRequestConfirmations",
          "type": "uint16"
        },
        {
          "internalType": "uint32",
          "name": "callbackGasLimit",
          "type": "uint32"
        },
        {
          "internalType": "uint32",
          "name": "numWords",
          "type": "uint32"
        }
      ],
      "name": "requestRandomWords",
      "outputs": [
        {
          "internalType": "uint256",
          "name": "requestId",
          "type": "uint256"
        }
      ],
      "stateMutability": "nonpayable",
      "type": "function"
    },
    {
      "inputs": [
        {
          "internalType": "uint64",
          "name": "subId",
          "type": "uint64"
        },
        {
          "internalType": "address",
          "name": "newOwner",
          "type": "address"
        }
      ],
      "name": "requestSubscriptionOwnerTransfer",
      "outputs": [],
      "stateMutability": "nonpayable",
      "type": "function"
    }
  ],
  "bytecode": "0x6101406040523480156200001257600080fd5b5060405162001b3438038062001b348339818101604052810190620000389190620001a8565b858073ffffffffffffffffffffffffffffffffffffffff1660808173ffffffffffffffffffffffffffffffffffffffff1660601b81525050508573ffffffffffffffffffffffffffffffffffffffff1660a08173ffffffffffffffffffffffffffffffffffffffff1660601b815250508467ffffffffffffffff1660e08167ffffffffffffffff1660c01b815250508360c0818152505082610120818152505060008054906101000a900463ffffffff169150806101008181525050426003819055506000600260006101000a81548160ff02191690836001811115620001245762000123620002b0565b5b021790555050505050505062000366565b6000815190506200014681620002e4565b92915050565b6000815190506200015d81620002fe565b92915050565b600081519050620001748162000318565b92915050565b6000815190506200018b8162000332565b92915050565b600081519050620001a2816200034c565b92915050565b60008060008060008060c08789031215620001c857620001c7620002df565b5b6000620001d889828a0162000135565b9650506020620001eb89828a0162000191565b9550506040620001fe89828a016200014c565b94505060606200021189828a0162000163565b93505060806200022489828a016200017a565b92505060a06200023789828a0162000163565b9150509295509295509295565b6000620002518262000262565b9050919050565b6000819050919050565b600073ffffffffffffffffffffffffffffffffffffffff82169050919050565b6000819050919050565b600063ffffffff82169050919050565b600067ffffffffffffffff82169050919050565b7f4e487b7100000000000000000000000000000000000000000000000000000000600052602160045260246000fd5b600080fd5b620002ef8162000244565b8114620002fb57600080fd5b50565b620003098162000258565b81146200031557600080fd5b50565b620003238162000282565b81146200032f57600080fd5b50565b6200033d816200028c565b81146200034957600080fd5b50565b62000357816200029c565b81146200036357600080fd5b50565b60805160601c60a05160601c60c05160e05160c01c610100516101205161176e620003c660003960006107b20152600061042a01526000610677015260006106560152600061061a01526000818161036a01526103be015261176e6000f3fe6080604052600436106100dc5760003560e01c80637341c10c1161007f578063a21a23e411610059578063a21a23e414610289578063a47c7696146102b4578063d7ae1d30146102f4578063e82ad7d41461031d576100dc565b80637341c10c1461020e57806382359740146102375780639f87fad714610260576100dc565b80632cfcc539116100bb5780632cfcc539146101605780634585e33b1461016a5780635d3b1d30146101935780636e04ff0d146101d0576100dc565b8062012291146100e157806304c357cb1461010e5780631fe543e314610137575b600080fd5b3480156100ed57600080fd5b506100f661035a565b60405161010593929190611230565b60405180910390f35b34801561011a57600080fd5b5061013560048036038101906101309190610f27565b610364565b005b34801561014357600080fd5b5061015e60048036038101906101599190610e9e565b610368565b005b610168610428565b005b34801561017657600080fd5b50610191600480360381019061018c9190610ddb565b610597565b005b34801561019f57600080fd5b506101ba60048036038101906101b59190610d60565b610752565b6040516101c7919061126e565b60405180910390f35b3480156101dc57600080fd5b506101f760048036038101906101f29190610e28565b61075d565b6040516102059291906111ad565b60405180910390f35b34801561021a57600080fd5b5061023560048036038101906102309190610f27565b610844565b005b34801561024357600080fd5b5061025e60048036038101906102599190610efa565b610848565b005b34801561026c57600080fd5b5061028760048036038101906102829190610f27565b61084b565b005b34801561029557600080fd5b5061029e61084f565b6040516102ab9190611289565b60405180910390f35b3480156102c057600080fd5b506102db60048036038101906102d69190610efa565b610854565b6040516102eb94939291906112a4565b60405180910390f35b34801561030057600080fd5b5061031b60048036038101906103169190610f27565b610862565b005b34801561032957600080fd5b50610344600480360381019061033f9190610efa565b610866565b6040516103519190611192565b60405180910390f35b6000806060909192565b5050565b7f000000000000000000000000000000000000000000000000000000000000000073ffffffffffffffffffffffffffffffffffffffff163373ffffffffffffffffffffffffffffffffffffffff161461041a57337f00000000000000000000000000000000000000000000000000000000000000006040517f1cf993f4000000000000000000000000000000000000000000000000000000008152600401610411929190611169565b60405180910390fd5b610424828261086d565b5050565b7f0000000000000000000000000000000000000000000000000000000000000000341015610482576040517f5a96246e00000000000000000000000000000000000000000000000000000000815260040160405180910390fd5b60006001811115610496576104956115ef565b5b600260009054906101000a900460ff1660018111156104b8576104b76115ef565b5b146104ef576040517f4ff3426e00000000000000000000000000000000000000000000000000000000815260040160405180910390fd5b6001339080600181540180825580915050600190039060005260206000200160009091909190916101000a81548173ffffffffffffffffffffffffffffffffffffffff021916908373ffffffffffffffffffffffffffffffffffffffff1602179055503373ffffffffffffffffffffffffffffffffffffffff167f0805e1d667bddb8a95f0f09880cf94f403fb596ce79928d9f29b74203ba284d460405160405180910390a2565b60006105b16040518060200160405280600081525061075d565b509050806105eb576040517f63c5070800000000000000000000000000000000000000000000000000000000815260040160405180910390fd5b6000600260006101000a81548160ff02191690836001811115610611576106106115ef565b5b021790555060007f000000000000000000000000000000000000000000000000000000000000000073ffffffffffffffffffffffffffffffffffffffff16635d3b1d307f00000000000000000000000000000000000000000000000000000000000000007f0000000000000000000000000000000000000000000000000000000000000000600360008054906101000a900463ffffffff1660016040518663ffffffff1660e01b81526004016106cb9594939291906111dd565b602060405180830381600087803b1580156106e557600080fd5b505af11580156106f9573d6000803e3d6000fd5b505050506040513d601f19601f8201168201806040525081019061071d9190610e71565b9050807fcd6e45c8998311cab7e9d4385596cac867e20a0587194b954fa3a731c93ce78b60405160405180910390a250505050565b600095945050505050565b600060606000806001811115610776576107756115ef565b5b600260009054906101000a900460ff166001811115610798576107976115ef565b5b1490506000806001805490501190506000804711905060007f0000000000000000000000000000000000000000000000000000000000000000600354426107df919061140b565b1190508380156107ec5750825b80156107f55750805b80156107fe5750815b9550856040518060400160405280600381526020017f30783000000000000000000000000000000000000000000000000000000000008152509550955050505050915091565b5050565b50565b5050565b600090565b600080600060609193509193565b5050565b6000919050565b6000600180549050826000815181106108895761088861161e565b5b602002602001015161089b9190611560565b90506000600182815481106108b3576108b261161e565b5b9060005260206000200160009054906101000a900473ffffffffffffffffffffffffffffffffffffffff16905080600260016101000a81548173ffffffffffffffffffffffffffffffffffffffff021916908373ffffffffffffffffffffffffffffffffffffffff1602179055506000600260006101000a81548160ff02191690836001811115610947576109466115ef565b5b021790555042600381905550600067ffffffffffffffff81111561096e5761096d61164d565b5b60405190808252806020026020018201604052801561099c5781602001602082028036833780820191505090505b50600190805190602001906109b2929190610ac2565b5060008173ffffffffffffffffffffffffffffffffffffffff16476040516109d990611154565b60006040518083038185875af1925050503d8060008114610a16576040519150601f19603f3d011682016040523d82523d6000602084013e610a1b565b606091505b5050905080610a56576040517fd7a974a400000000000000000000000000000000000000000000000000000000815260040160405180910390fd5b600260019054906101000a900473ffffffffffffffffffffffffffffffffffffffff1673ffffffffffffffffffffffffffffffffffffffff167fe1becba315bbc7476573420d6218b61de9aa81ae6f20904b35f4f1e74eccac0160405160405180910390a25050505050565b828054828255906000526020600020908101928215610b3b579160200282015b82811115610b3a5782518260006101000a81548173ffffffffffffffffffffffffffffffffffffffff021916908373ffffffffffffffffffffffffffffffffffffffff16021790555091602001919060010190610ae2565b5b509050610b489190610b4c565b5090565b5b80821115610b65576000816000905550600101610b4d565b5090565b6000610b7c610b7784611315565b6112f0565b90508083825260208201905082856020860282011115610b9f57610b9e611686565b5b60005b85811015610bcf5781610bb58882610d0c565b845260208401935060208301925050600181019050610ba2565b5050509392505050565b6000610bec610be784611341565b6112f0565b905082815260208101848484011115610c0857610c0761168b565b5b610c138482856114ed565b509392505050565b600081359050610c2a816116ae565b92915050565b600082601f830112610c4557610c44611681565b5b8135610c55848260208601610b69565b91505092915050565b600081359050610c6d816116c5565b92915050565b60008083601f840112610c8957610c88611681565b5b8235905067ffffffffffffffff811115610ca657610ca561167c565b5b602083019150836001820283011115610cc257610cc1611686565b5b9250929050565b600082601f830112610cde57610cdd611681565b5b8135610cee848260208601610bd9565b91505092915050565b600081359050610d06816116dc565b92915050565b600081359050610d1b816116f3565b92915050565b600081519050610d30816116f3565b92915050565b600081359050610d458161170a565b92915050565b600081359050610d5a81611721565b92915050565b600080600080600060a08688031215610d7c57610d7b611695565b5b6000610d8a88828901610c5e565b9550506020610d9b88828901610d4b565b9450506040610dac88828901610cf7565b9350506060610dbd88828901610d36565b9250506080610dce88828901610d36565b9150509295509295909350565b60008060208385031215610df257610df1611695565b5b600083013567ffffffffffffffff811115610e1057610e0f611690565b5b610e1c85828601610c73565b92509250509250929050565b600060208284031215610e3e57610e3d611695565b5b600082013567ffffffffffffffff811115610e5c57610e5b611690565b5b610e6884828501610cc9565b91505092915050565b600060208284031215610e8757610e86611695565b5b6000610e9584828501610d21565b91505092915050565b60008060408385031215610eb557610eb4611695565b5b6000610ec385828601610d0c565b925050602083013567ffffffffffffffff811115610ee457610ee3611690565b5b610ef085828601610c30565b9150509250929050565b600060208284031215610f1057610f0f611695565b5b6000610f1e84828501610d4b565b91505092915050565b60008060408385031215610f3e57610f3d611695565b5b6000610f4c85828601610d4b565b9250506020610f5d85828601610c1b565b9150509250929050565b6000610f738383610f97565b60208301905092915050565b6000610f8b8383611080565b60208301905092915050565b610fa08161143f565b82525050565b610faf8161143f565b82525050565b6000610fc082611392565b610fca81856113cd565b9350610fd583611372565b8060005b83811015611006578151610fed8882610f67565b9750610ff8836113b3565b925050600181019050610fd9565b5085935050505092915050565b600061101e8261139d565b61102881856113de565b935061103383611382565b8060005b8381101561106457815161104b8882610f7f565b9750611056836113c0565b925050600181019050611037565b5085935050505092915050565b61107a81611451565b82525050565b6110898161145d565b82525050565b6110988161145d565b82525050565b60006110a9826113a8565b6110b381856113ef565b93506110c38185602086016114fc565b6110cc8161169a565b840191505092915050565b60006110e4600083611400565b91506110ef826116ab565b600082019050919050565b61110381611467565b82525050565b611112816114db565b82525050565b61112181611495565b82525050565b6111308161149f565b82525050565b61113f816114af565b82525050565b61114e816114c3565b82525050565b600061115f826110d7565b9150819050919050565b600060408201905061117e6000830185610fa6565b61118b6020830184610fa6565b9392505050565b60006020820190506111a76000830184611071565b92915050565b60006040820190506111c26000830185611071565b81810360208301526111d4818461109e565b90509392505050565b600060a0820190506111f2600083018861108f565b6111ff6020830187611136565b61120c60408301866110fa565b6112196060830185611127565b6112266080830184611109565b9695505050505050565b600060608201905061124560008301866110fa565b6112526020830185611127565b81810360408301526112648184611013565b9050949350505050565b60006020820190506112836000830184611118565b92915050565b600060208201905061129e6000830184611136565b92915050565b60006080820190506112b96000830187611145565b6112c66020830186611136565b6112d36040830185610fa6565b81810360608301526112e58184610fb5565b905095945050505050565b60006112fa61130b565b9050611306828261152f565b919050565b6000604051905090565b600067ffffffffffffffff8211156113305761132f61164d565b5b602082029050602081019050919050565b600067ffffffffffffffff82111561135c5761135b61164d565b5b6113658261169a565b9050602081019050919050565b6000819050602082019050919050565b6000819050602082019050919050565b600081519050919050565b600081519050919050565b600081519050919050565b6000602082019050919050565b6000602082019050919050565b600082825260208201905092915050565b600082825260208201905092915050565b600082825260208201905092915050565b600081905092915050565b600061141682611495565b915061142183611495565b92508282101561143457611433611591565b5b828203905092915050565b600061144a82611475565b9050919050565b60008115159050919050565b6000819050919050565b600061ffff82169050919050565b600073ffffffffffffffffffffffffffffffffffffffff82169050919050565b6000819050919050565b600063ffffffff82169050919050565b600067ffffffffffffffff82169050919050565b60006bffffffffffffffffffffffff82169050919050565b60006114e682611467565b9050919050565b82818337600083830152505050565b60005b8381101561151a5780820151818401526020810190506114ff565b83811115611529576000848401525b50505050565b6115388261169a565b810181811067ffffffffffffffff821117156115575761155661164d565b5b80604052505050565b600061156b82611495565b915061157683611495565b925082611586576115856115c0565b5b828206905092915050565b7f4e487b7100000000000000000000000000000000000000000000000000000000600052601160045260246000fd5b7f4e487b7100000000000000000000000000000000000000000000000000000000600052601260045260246000fd5b7f4e487b7100000000000000000000000000000000000000000000000000000000600052602160045260246000fd5b7f4e487b7100000000000000000000000000000000000000000000000000000000600052603260045260246000fd5b7f4e487b7100000000000000000000000000000000000000000000000000000000600052604160045260246000fd5b600080fd5b600080fd5b600080fd5b600080fd5b600080fd5b600080fd5b6000601f19601f8301169050919050565b50565b6116b78161143f565b81146116c257600080fd5b50565b6116ce8161145d565b81146116d957600080fd5b50565b6116e581611467565b81146116f057600080fd5b50565b6116fc81611495565b811461170757600080fd5b50565b6117138161149f565b811461171e57600080fd5b50565b61172a816114af565b811461173557600080fd5b5056fea2646970667358221220f2553d0f4b384a8a441f6555b86466d4f766dbee0cb2d46c79946ae5ed19eb1a64736f6c63430008070033",
  "linkReferences": {},
  "deployedLinkReferences": {}
}