{
  "_format": "hh-sol-artifact-1",
  "contractName": "Raffle",
  "sourceName": "contracts/Raffle.sol",
  "abi": [
    {
      "inputs": [
        {
          "internalType": "address",
          "name": "vrfCoordinatorV2",
          "type": "address"
        },
        {
          "internalType": "uint64",
          "name": "subscriptionId",
          "type": "uint64"
        },
        {
          "internalType": "bytes32",
          "name": "gasLane",
          "type": "bytes32"
        },
        {
          "internalType": "uint256",
          "name": "interval",
          "type": "uint256"
        },
        {
          "internalType": "uint32",
          "name": "callbackGasLimit",
          "type": "uint32"
        },
        {
          "internalType": "uint256",
          "name": "entranceFee",
          "type": "uint256"
        }
      ],
      "stateMutability": "nonpayable",
      "type": "constructor"
    },
    {
      "inputs": [
        {
          "internalType": "address",
          "name": "have",
          "type": "address"
        },
        {
          "internalType": "address",
          "name": "want",
          "type": "address"
        }
      ],
      "name": "OnlyCoordinatorCanFulfill",
      "type": "error"
    },
    {
      "inputs": [],
      "name": "Raffle__notEnoughFee",
      "type": "error"
    },
    {
      "inputs": [],
      "name": "Raffle__notOpen",
      "type": "error"
    },
    {
      "inputs": [
        {
          "internalType": "uint256",
          "name": "currentBalance",
          "type": "uint256"
        },
        {
          "internalType": "uint256",
          "name": "numPlayers",
          "type": "uint256"
        },
        {
          "internalType": "uint256",
          "name": "raffleState",
          "type": "uint256"
        }
      ],
      "name": "Raffle__upkeepFailed",
      "type": "error"
    },
    {
      "inputs": [],
      "name": "Raffle__withdrawalFailed",
      "type": "error"
    },
    {
      "anonymous": false,
      "inputs": [
        {
          "indexed": true,
          "internalType": "address",
          "name": "player",
          "type": "address"
        }
      ],
      "name": "RaffleEnter",
      "type": "event"
    },
    {
      "anonymous": false,
      "inputs": [
        {
          "indexed": true,
          "internalType": "uint256",
          "name": "requestId",
          "type": "uint256"
        }
      ],
      "name": "RequestedRaffleWinner",
      "type": "event"
    },
    {
      "anonymous": false,
      "inputs": [
        {
          "indexed": true,
          "internalType": "address",
          "name": "player",
          "type": "address"
        }
      ],
      "name": "getRecentWinner",
      "type": "event"
    },
    {
      "inputs": [
        {
          "internalType": "uint64",
          "name": "subId",
          "type": "uint64"
        }
      ],
      "name": "acceptSubscriptionOwnerTransfer",
      "outputs": [],
      "stateMutability": "nonpayable",
      "type": "function"
    },
    {
      "inputs": [
        {
          "internalType": "uint64",
          "name": "subId",
          "type": "uint64"
        },
        {
          "internalType": "address",
          "name": "consumer",
          "type": "address"
        }
      ],
      "name": "addConsumer",
      "outputs": [],
      "stateMutability": "nonpayable",
      "type": "function"
    },
    {
      "inputs": [
        {
          "internalType": "uint64",
          "name": "subId",
          "type": "uint64"
        },
        {
          "internalType": "address",
          "name": "to",
          "type": "address"
        }
      ],
      "name": "cancelSubscription",
      "outputs": [],
      "stateMutability": "nonpayable",
      "type": "function"
    },
    {
      "inputs": [
        {
          "internalType": "bytes",
          "name": "",
          "type": "bytes"
        }
      ],
      "name": "checkUpkeep",
      "outputs": [
        {
          "internalType": "bool",
          "name": "upkeepNeeded",
          "type": "bool"
        },
        {
          "internalType": "bytes",
          "name": "",
          "type": "bytes"
        }
      ],
      "stateMutability": "view",
      "type": "function"
    },
    {
      "inputs": [],
      "name": "createSubscription",
      "outputs": [
        {
          "internalType": "uint64",
          "name": "subId",
          "type": "uint64"
        }
      ],
      "stateMutability": "nonpayable",
      "type": "function"
    },
    {
      "inputs": [],
      "name": "enterRaffle",
      "outputs": [],
      "stateMutability": "payable",
      "type": "function"
    },
    {
      "inputs": [],
      "name": "getEntranceFee",
      "outputs": [
        {
          "internalType": "uint256",
          "name": "",
          "type": "uint256"
        }
      ],
      "stateMutability": "view",
      "type": "function"
    },
    {
      "inputs": [],
      "name": "getInterval",
      "outputs": [
        {
          "internalType": "uint256",
          "name": "",
          "type": "uint256"
        }
      ],
      "stateMutability": "view",
      "type": "function"
    },
    {
      "inputs": [],
      "name": "getLatestTimestamp",
      "outputs": [
        {
          "internalType": "uint256",
          "name": "",
          "type": "uint256"
        }
      ],
      "stateMutability": "view",
      "type": "function"
    },
    {
      "inputs": [
        {
          "internalType": "uint256",
          "name": "index",
          "type": "uint256"
        }
      ],
      "name": "getPlayers",
      "outputs": [
        {
          "internalType": "address",
          "name": "",
          "type": "address"
        }
      ],
      "stateMutability": "view",
      "type": "function"
    },
    {
      "inputs": [],
      "name": "getRaffleState",
      "outputs": [
        {
          "internalType": "enum Raffle.RaffleState",
          "name": "",
          "type": "uint8"
        }
      ],
      "stateMutability": "view",
      "type": "function"
    },
    {
      "inputs": [],
      "name": "getRequestConfig",
      "outputs": [
        {
          "internalType": "uint16",
          "name": "",
          "type": "uint16"
        },
        {
          "internalType": "uint32",
          "name": "",
          "type": "uint32"
        },
        {
          "internalType": "bytes32[]",
          "name": "",
          "type": "bytes32[]"
        }
      ],
      "stateMutability": "view",
      "type": "function"
    },
    {
      "inputs": [
        {
          "internalType": "uint64",
          "name": "subId",
          "type": "uint64"
        }
      ],
      "name": "getSubscription",
      "outputs": [
        {
          "internalType": "uint96",
          "name": "balance",
          "type": "uint96"
        },
        {
          "internalType": "uint64",
          "name": "reqCount",
          "type": "uint64"
        },
        {
          "internalType": "address",
          "name": "owner",
          "type": "address"
        },
        {
          "internalType": "address[]",
          "name": "consumers",
          "type": "address[]"
        }
      ],
      "stateMutability": "view",
      "type": "function"
    },
    {
      "inputs": [],
      "name": "getWinner",
      "outputs": [
        {
          "internalType": "address",
          "name": "",
          "type": "address"
        }
      ],
      "stateMutability": "view",
      "type": "function"
    },
    {
      "inputs": [
        {
          "internalType": "uint64",
          "name": "subId",
          "type": "uint64"
        }
      ],
      "name": "pendingRequestExists",
      "outputs": [
        {
          "internalType": "bool",
          "name": "",
          "type": "bool"
        }
      ],
      "stateMutability": "view",
      "type": "function"
    },
    {
      "inputs": [
        {
          "internalType": "bytes",
          "name": "",
          "type": "bytes"
        }
      ],
      "name": "performUpkeep",
      "outputs": [],
      "stateMutability": "nonpayable",
      "type": "function"
    },
    {
      "inputs": [
        {
          "internalType": "uint256",
          "name": "requestId",
          "type": "uint256"
        },
        {
          "internalType": "uint256[]",
          "name": "randomWords",
          "type": "uint256[]"
        }
      ],
      "name": "rawFulfillRandomWords",
      "outputs": [],
      "stateMutability": "nonpayable",
      "type": "function"
    },
    {
      "inputs": [
        {
          "internalType": "uint64",
          "name": "subId",
          "type": "uint64"
        },
        {
          "internalType": "address",
          "name": "consumer",
          "type": "address"
        }
      ],
      "name": "removeConsumer",
      "outputs": [],
      "stateMutability": "nonpayable",
      "type": "function"
    },
    {
      "inputs": [
        {
          "internalType": "bytes32",
          "name": "keyHash",
          "type": "bytes32"
        },
        {
          "internalType": "uint64",
          "name": "subId",
          "type": "uint64"
        },
        {
          "internalType": "uint16",
          "name": "minimumRequestConfirmations",
          "type": "uint16"
        },
        {
          "internalType": "uint32",
          "name": "callbackGasLimit",
          "type": "uint32"
        },
        {
          "internalType": "uint32",
          "name": "numWords",
          "type": "uint32"
        }
      ],
      "name": "requestRandomWords",
      "outputs": [
        {
          "internalType": "uint256",
          "name": "requestId",
          "type": "uint256"
        }
      ],
      "stateMutability": "nonpayable",
      "type": "function"
    },
    {
      "inputs": [
        {
          "internalType": "uint64",
          "name": "subId",
          "type": "uint64"
        },
        {
          "internalType": "address",
          "name": "newOwner",
          "type": "address"
        }
      ],
      "name": "requestSubscriptionOwnerTransfer",
      "outputs": [],
      "stateMutability": "nonpayable",
      "type": "function"
    }
  ],
  "bytecode": "0x6101406040523480156200001257600080fd5b5060405162001e9238038062001e928339818101604052810190620000389190620001a8565b858073ffffffffffffffffffffffffffffffffffffffff1660808173ffffffffffffffffffffffffffffffffffffffff1660601b81525050508573ffffffffffffffffffffffffffffffffffffffff1660a08173ffffffffffffffffffffffffffffffffffffffff1660601b815250508467ffffffffffffffff1660e08167ffffffffffffffff1660c01b815250508360c0818152505082610120818152505060008054906101000a900463ffffffff169150806101008181525050426003819055506000600260006101000a81548160ff02191690836001811115620001245762000123620002b0565b5b021790555050505050505062000366565b6000815190506200014681620002e4565b92915050565b6000815190506200015d81620002fe565b92915050565b600081519050620001748162000318565b92915050565b6000815190506200018b8162000332565b92915050565b600081519050620001a2816200034c565b92915050565b60008060008060008060c08789031215620001c857620001c7620002df565b5b6000620001d889828a0162000135565b9650506020620001eb89828a0162000191565b9550506040620001fe89828a016200014c565b94505060606200021189828a0162000163565b93505060806200022489828a016200017a565b92505060a06200023789828a0162000163565b9150509295509295509295565b6000620002518262000262565b9050919050565b6000819050919050565b600073ffffffffffffffffffffffffffffffffffffffff82169050919050565b6000819050919050565b600063ffffffff82169050919050565b600067ffffffffffffffff82169050919050565b7f4e487b7100000000000000000000000000000000000000000000000000000000600052602160045260246000fd5b600080fd5b620002ef8162000244565b8114620002fb57600080fd5b50565b620003098162000258565b81146200031557600080fd5b50565b620003238162000282565b81146200032f57600080fd5b50565b6200033d816200028c565b81146200034957600080fd5b50565b62000357816200029c565b81146200036357600080fd5b50565b60805160601c60a05160601c60c05160e05160c01c6101005161012051611abe620003d4600039600081816109c40152610a8b0152600081816104c201526105bf0152600061084101526000610820015260006107e40152600081816104ff01526105530152611abe6000f3fe60806040526004361061011e5760003560e01c80637341c10c116100a0578063a21a23e411610064578063a21a23e4146103b4578063a47c7696146103df578063d7ae1d301461041f578063e82ad7d414610448578063f43b52cb146104855761011e565b80637341c10c146102e3578063823597401461030c5780638e7ea5b21461033557806391ad27b4146103605780639f87fad71461038b5761011e565b80632cfcc539116100e75780632cfcc539146101f85780634585e33b14610202578063460e20491461022b5780635d3b1d30146102685780636e04ff0d146102a55761011e565b80620122911461012357806304c357cb1461015057806309bc33a714610179578063115cbaf5146101a45780631fe543e3146101cf575b600080fd5b34801561012f57600080fd5b506101386104b0565b60405161014793929190611510565b60405180910390f35b34801561015c57600080fd5b50610177600480360381019061017291906111c2565b6104ba565b005b34801561018557600080fd5b5061018e6104be565b60405161019b919061154e565b60405180910390f35b3480156101b057600080fd5b506101b96104e6565b6040516101c691906114f5565b60405180910390f35b3480156101db57600080fd5b506101f660048036038101906101f19190611139565b6104fd565b005b6102006105bd565b005b34801561020e57600080fd5b5061022960048036038101906102249190611049565b61072c565b005b34801561023757600080fd5b50610252600480360381019061024d91906110df565b61091c565b60405161025f9190611413565b60405180910390f35b34801561027457600080fd5b5061028f600480360381019061028a9190610fce565b610964565b60405161029c919061154e565b60405180910390f35b3480156102b157600080fd5b506102cc60048036038101906102c79190611096565b61096f565b6040516102da929190611472565b60405180910390f35b3480156102ef57600080fd5b5061030a600480360381019061030591906111c2565b610a56565b005b34801561031857600080fd5b50610333600480360381019061032e9190611195565b610a5a565b005b34801561034157600080fd5b5061034a610a5d565b6040516103579190611413565b60405180910390f35b34801561036c57600080fd5b50610375610a87565b604051610382919061154e565b60405180910390f35b34801561039757600080fd5b506103b260048036038101906103ad91906111c2565b610aaf565b005b3480156103c057600080fd5b506103c9610ab3565b6040516103d691906115a0565b60405180910390f35b3480156103eb57600080fd5b5061040660048036038101906104019190611195565b610ab8565b60405161041694939291906115bb565b60405180910390f35b34801561042b57600080fd5b50610446600480360381019061044191906111c2565b610ac6565b005b34801561045457600080fd5b5061046f600480360381019061046a9190611195565b610aca565b60405161047c9190611457565b60405180910390f35b34801561049157600080fd5b5061049a610ad1565b6040516104a7919061154e565b60405180910390f35b6000806060909192565b5050565b60007f0000000000000000000000000000000000000000000000000000000000000000905090565b6000600260009054906101000a900460ff16905090565b7f000000000000000000000000000000000000000000000000000000000000000073ffffffffffffffffffffffffffffffffffffffff163373ffffffffffffffffffffffffffffffffffffffff16146105af57337f00000000000000000000000000000000000000000000000000000000000000006040517f1cf993f40000000000000000000000000000000000000000000000000000000081526004016105a692919061142e565b60405180910390fd5b6105b98282610adb565b5050565b7f0000000000000000000000000000000000000000000000000000000000000000341015610617576040517faefe484200000000000000000000000000000000000000000000000000000000815260040160405180910390fd5b6000600181111561062b5761062a61192b565b5b600260009054906101000a900460ff16600181111561064d5761064c61192b565b5b14610684576040517f4ff3426e00000000000000000000000000000000000000000000000000000000815260040160405180910390fd5b6001339080600181540180825580915050600190039060005260206000200160009091909190916101000a81548173ffffffffffffffffffffffffffffffffffffffff021916908373ffffffffffffffffffffffffffffffffffffffff1602179055503373ffffffffffffffffffffffffffffffffffffffff167f0805e1d667bddb8a95f0f09880cf94f403fb596ce79928d9f29b74203ba284d460405160405180910390a2565b60006107466040518060200160405280600081525061096f565b509050806107b55747600180549050600260009054906101000a900460ff1660018111156107775761077661192b565b5b6040517f1febb43f0000000000000000000000000000000000000000000000000000000081526004016107ac93929190611569565b60405180910390fd5b6001600260006101000a81548160ff021916908360018111156107db576107da61192b565b5b021790555060007f000000000000000000000000000000000000000000000000000000000000000073ffffffffffffffffffffffffffffffffffffffff16635d3b1d307f00000000000000000000000000000000000000000000000000000000000000007f0000000000000000000000000000000000000000000000000000000000000000600360008054906101000a900463ffffffff1660016040518663ffffffff1660e01b81526004016108959594939291906114a2565b602060405180830381600087803b1580156108af57600080fd5b505af11580156108c3573d6000803e3d6000fd5b505050506040513d601f19601f820116820180604052508101906108e7919061110c565b9050807fcd6e45c8998311cab7e9d4385596cac867e20a0587194b954fa3a731c93ce78b60405160405180910390a250505050565b6000600182815481106109325761093161195a565b5b9060005260206000200160009054906101000a900473ffffffffffffffffffffffffffffffffffffffff169050919050565b600095945050505050565b6000606060008060018111156109885761098761192b565b5b600260009054906101000a900460ff1660018111156109aa576109a961192b565b5b1490506000806001805490501190506000804711905060007f0000000000000000000000000000000000000000000000000000000000000000600354426109f19190611722565b1190508380156109fe5750825b8015610a075750815b8015610a105750805b9550856040518060400160405280600381526020017f30783000000000000000000000000000000000000000000000000000000000008152509550955050505050915091565b5050565b50565b6000600260019054906101000a900473ffffffffffffffffffffffffffffffffffffffff16905090565b60007f0000000000000000000000000000000000000000000000000000000000000000905090565b5050565b600090565b600080600060609193509193565b5050565b6000919050565b6000600354905090565b600060018054905082600081518110610af757610af661195a565b5b6020026020010151610b09919061189c565b9050600060018281548110610b2157610b2061195a565b5b9060005260206000200160009054906101000a900473ffffffffffffffffffffffffffffffffffffffff16905080600260016101000a81548173ffffffffffffffffffffffffffffffffffffffff021916908373ffffffffffffffffffffffffffffffffffffffff160217905550600067ffffffffffffffff811115610baa57610ba9611989565b5b604051908082528060200260200182016040528015610bd85781602001602082028036833780820191505090505b5060019080519060200190610bee929190610d30565b506000600260006101000a81548160ff02191690836001811115610c1557610c1461192b565b5b02179055504260038190555060008173ffffffffffffffffffffffffffffffffffffffff1647604051610c47906113fe565b60006040518083038185875af1925050503d8060008114610c84576040519150601f19603f3d011682016040523d82523d6000602084013e610c89565b606091505b5050905080610cc4576040517ff14c8af100000000000000000000000000000000000000000000000000000000815260040160405180910390fd5b600260019054906101000a900473ffffffffffffffffffffffffffffffffffffffff1673ffffffffffffffffffffffffffffffffffffffff167fe1becba315bbc7476573420d6218b61de9aa81ae6f20904b35f4f1e74eccac0160405160405180910390a25050505050565b828054828255906000526020600020908101928215610da9579160200282015b82811115610da85782518260006101000a81548173ffffffffffffffffffffffffffffffffffffffff021916908373ffffffffffffffffffffffffffffffffffffffff16021790555091602001919060010190610d50565b5b509050610db69190610dba565b5090565b5b80821115610dd3576000816000905550600101610dbb565b5090565b6000610dea610de58461162c565b611607565b90508083825260208201905082856020860282011115610e0d57610e0c6119c2565b5b60005b85811015610e3d5781610e238882610f7a565b845260208401935060208301925050600181019050610e10565b5050509392505050565b6000610e5a610e5584611658565b611607565b905082815260208101848484011115610e7657610e756119c7565b5b610e81848285611829565b509392505050565b600081359050610e98816119fe565b92915050565b600082601f830112610eb357610eb26119bd565b5b8135610ec3848260208601610dd7565b91505092915050565b600081359050610edb81611a15565b92915050565b60008083601f840112610ef757610ef66119bd565b5b8235905067ffffffffffffffff811115610f1457610f136119b8565b5b602083019150836001820283011115610f3057610f2f6119c2565b5b9250929050565b600082601f830112610f4c57610f4b6119bd565b5b8135610f5c848260208601610e47565b91505092915050565b600081359050610f7481611a2c565b92915050565b600081359050610f8981611a43565b92915050565b600081519050610f9e81611a43565b92915050565b600081359050610fb381611a5a565b92915050565b600081359050610fc881611a71565b92915050565b600080600080600060a08688031215610fea57610fe96119d1565b5b6000610ff888828901610ecc565b955050602061100988828901610fb9565b945050604061101a88828901610f65565b935050606061102b88828901610fa4565b925050608061103c88828901610fa4565b9150509295509295909350565b600080602083850312156110605761105f6119d1565b5b600083013567ffffffffffffffff81111561107e5761107d6119cc565b5b61108a85828601610ee1565b92509250509250929050565b6000602082840312156110ac576110ab6119d1565b5b600082013567ffffffffffffffff8111156110ca576110c96119cc565b5b6110d684828501610f37565b91505092915050565b6000602082840312156110f5576110f46119d1565b5b600061110384828501610f7a565b91505092915050565b600060208284031215611122576111216119d1565b5b600061113084828501610f8f565b91505092915050565b600080604083850312156111505761114f6119d1565b5b600061115e85828601610f7a565b925050602083013567ffffffffffffffff81111561117f5761117e6119cc565b5b61118b85828601610e9e565b9150509250929050565b6000602082840312156111ab576111aa6119d1565b5b60006111b984828501610fb9565b91505092915050565b600080604083850312156111d9576111d86119d1565b5b60006111e785828601610fb9565b92505060206111f885828601610e89565b9150509250929050565b600061120e8383611232565b60208301905092915050565b6000611226838361131b565b60208301905092915050565b61123b81611756565b82525050565b61124a81611756565b82525050565b600061125b826116a9565b61126581856116e4565b935061127083611689565b8060005b838110156112a15781516112888882611202565b9750611293836116ca565b925050600181019050611274565b5085935050505092915050565b60006112b9826116b4565b6112c381856116f5565b93506112ce83611699565b8060005b838110156112ff5781516112e6888261121a565b97506112f1836116d7565b9250506001810190506112d2565b5085935050505092915050565b61131581611768565b82525050565b61132481611774565b82525050565b61133381611774565b82525050565b6000611344826116bf565b61134e8185611706565b935061135e818560208601611838565b611367816119d6565b840191505092915050565b61137b81611805565b82525050565b600061138e600083611717565b9150611399826119e7565b600082019050919050565b6113ad81611791565b82525050565b6113bc81611817565b82525050565b6113cb816117bf565b82525050565b6113da816117c9565b82525050565b6113e9816117d9565b82525050565b6113f8816117ed565b82525050565b600061140982611381565b9150819050919050565b60006020820190506114286000830184611241565b92915050565b60006040820190506114436000830185611241565b6114506020830184611241565b9392505050565b600060208201905061146c600083018461130c565b92915050565b6000604082019050611487600083018561130c565b81810360208301526114998184611339565b90509392505050565b600060a0820190506114b7600083018861132a565b6114c460208301876113e0565b6114d160408301866113a4565b6114de60608301856113d1565b6114eb60808301846113b3565b9695505050505050565b600060208201905061150a6000830184611372565b92915050565b600060608201905061152560008301866113a4565b61153260208301856113d1565b818103604083015261154481846112ae565b9050949350505050565b600060208201905061156360008301846113c2565b92915050565b600060608201905061157e60008301866113c2565b61158b60208301856113c2565b61159860408301846113c2565b949350505050565b60006020820190506115b560008301846113e0565b92915050565b60006080820190506115d060008301876113ef565b6115dd60208301866113e0565b6115ea6040830185611241565b81810360608301526115fc8184611250565b905095945050505050565b6000611611611622565b905061161d828261186b565b919050565b6000604051905090565b600067ffffffffffffffff82111561164757611646611989565b5b602082029050602081019050919050565b600067ffffffffffffffff82111561167357611672611989565b5b61167c826119d6565b9050602081019050919050565b6000819050602082019050919050565b6000819050602082019050919050565b600081519050919050565b600081519050919050565b600081519050919050565b6000602082019050919050565b6000602082019050919050565b600082825260208201905092915050565b600082825260208201905092915050565b600082825260208201905092915050565b600081905092915050565b600061172d826117bf565b9150611738836117bf565b92508282101561174b5761174a6118cd565b5b828203905092915050565b60006117618261179f565b9050919050565b60008115159050919050565b6000819050919050565b600081905061178c826119ea565b919050565b600061ffff82169050919050565b600073ffffffffffffffffffffffffffffffffffffffff82169050919050565b6000819050919050565b600063ffffffff82169050919050565b600067ffffffffffffffff82169050919050565b60006bffffffffffffffffffffffff82169050919050565b60006118108261177e565b9050919050565b600061182282611791565b9050919050565b82818337600083830152505050565b60005b8381101561185657808201518184015260208101905061183b565b83811115611865576000848401525b50505050565b611874826119d6565b810181811067ffffffffffffffff8211171561189357611892611989565b5b80604052505050565b60006118a7826117bf565b91506118b2836117bf565b9250826118c2576118c16118fc565b5b828206905092915050565b7f4e487b7100000000000000000000000000000000000000000000000000000000600052601160045260246000fd5b7f4e487b7100000000000000000000000000000000000000000000000000000000600052601260045260246000fd5b7f4e487b7100000000000000000000000000000000000000000000000000000000600052602160045260246000fd5b7f4e487b7100000000000000000000000000000000000000000000000000000000600052603260045260246000fd5b7f4e487b7100000000000000000000000000000000000000000000000000000000600052604160045260246000fd5b600080fd5b600080fd5b600080fd5b600080fd5b600080fd5b600080fd5b6000601f19601f8301169050919050565b50565b600281106119fb576119fa61192b565b5b50565b611a0781611756565b8114611a1257600080fd5b50565b611a1e81611774565b8114611a2957600080fd5b50565b611a3581611791565b8114611a4057600080fd5b50565b611a4c816117bf565b8114611a5757600080fd5b50565b611a63816117c9565b8114611a6e57600080fd5b50565b611a7a816117d9565b8114611a8557600080fd5b5056fea2646970667358221220c5edc9e7a00be5995a84dbd475fb7f87d150c35d7fc25364bf7dc07c2589d36664736f6c63430008070033",
  "linkReferences": {},
  "deployedLinkReferences": {}
}