{
  "_format": "hh-sol-artifact-1",
  "contractName": "Raffle",
  "sourceName": "contracts/Raffle.sol",
  "abi": [
    {
      "inputs": [
        {
          "internalType": "address",
          "name": "vrfCoordinatorV2",
          "type": "address"
        },
        {
          "internalType": "uint64",
          "name": "subscriptionId",
          "type": "uint64"
        },
        {
          "internalType": "bytes32",
          "name": "gasLane",
          "type": "bytes32"
        },
        {
          "internalType": "uint256",
          "name": "interval",
          "type": "uint256"
        },
        {
          "internalType": "uint32",
          "name": "callbackGasLimit",
          "type": "uint32"
        },
        {
          "internalType": "uint256",
          "name": "entranceFee",
          "type": "uint256"
        }
      ],
      "stateMutability": "nonpayable",
      "type": "constructor"
    },
    {
      "inputs": [
        {
          "internalType": "address",
          "name": "have",
          "type": "address"
        },
        {
          "internalType": "address",
          "name": "want",
          "type": "address"
        }
      ],
      "name": "OnlyCoordinatorCanFulfill",
      "type": "error"
    },
    {
      "inputs": [],
      "name": "Raffle__notEnoughFee",
      "type": "error"
    },
    {
      "inputs": [],
      "name": "Raffle__notOpen",
      "type": "error"
    },
    {
      "inputs": [
        {
          "internalType": "uint256",
          "name": "currentBalance",
          "type": "uint256"
        },
        {
          "internalType": "uint256",
          "name": "numPlayers",
          "type": "uint256"
        },
        {
          "internalType": "uint256",
          "name": "raffleState",
          "type": "uint256"
        }
      ],
      "name": "Raffle__upkeepFailed",
      "type": "error"
    },
    {
      "inputs": [],
      "name": "Raffle__withdrawalFailed",
      "type": "error"
    },
    {
      "anonymous": false,
      "inputs": [
        {
          "indexed": true,
          "internalType": "address",
          "name": "player",
          "type": "address"
        }
      ],
      "name": "RaffleEnter",
      "type": "event"
    },
    {
      "anonymous": false,
      "inputs": [
        {
          "indexed": true,
          "internalType": "uint256",
          "name": "requestId",
          "type": "uint256"
        }
      ],
      "name": "RequestedRaffleWinner",
      "type": "event"
    },
    {
      "anonymous": false,
      "inputs": [
        {
          "indexed": true,
          "internalType": "address",
          "name": "player",
          "type": "address"
        }
      ],
      "name": "getRecentWinner",
      "type": "event"
    },
    {
      "inputs": [
        {
          "internalType": "uint64",
          "name": "subId",
          "type": "uint64"
        }
      ],
      "name": "acceptSubscriptionOwnerTransfer",
      "outputs": [],
      "stateMutability": "nonpayable",
      "type": "function"
    },
    {
      "inputs": [
        {
          "internalType": "uint64",
          "name": "subId",
          "type": "uint64"
        },
        {
          "internalType": "address",
          "name": "consumer",
          "type": "address"
        }
      ],
      "name": "addConsumer",
      "outputs": [],
      "stateMutability": "nonpayable",
      "type": "function"
    },
    {
      "inputs": [
        {
          "internalType": "uint64",
          "name": "subId",
          "type": "uint64"
        },
        {
          "internalType": "address",
          "name": "to",
          "type": "address"
        }
      ],
      "name": "cancelSubscription",
      "outputs": [],
      "stateMutability": "nonpayable",
      "type": "function"
    },
    {
      "inputs": [
        {
          "internalType": "bytes",
          "name": "",
          "type": "bytes"
        }
      ],
      "name": "checkUpkeep",
      "outputs": [
        {
          "internalType": "bool",
          "name": "upkeepNeeded",
          "type": "bool"
        },
        {
          "internalType": "bytes",
          "name": "",
          "type": "bytes"
        }
      ],
      "stateMutability": "view",
      "type": "function"
    },
    {
      "inputs": [],
      "name": "createSubscription",
      "outputs": [
        {
          "internalType": "uint64",
          "name": "subId",
          "type": "uint64"
        }
      ],
      "stateMutability": "nonpayable",
      "type": "function"
    },
    {
      "inputs": [],
      "name": "enterRaffle",
      "outputs": [],
      "stateMutability": "payable",
      "type": "function"
    },
    {
      "inputs": [],
      "name": "getRequestConfig",
      "outputs": [
        {
          "internalType": "uint16",
          "name": "",
          "type": "uint16"
        },
        {
          "internalType": "uint32",
          "name": "",
          "type": "uint32"
        },
        {
          "internalType": "bytes32[]",
          "name": "",
          "type": "bytes32[]"
        }
      ],
      "stateMutability": "view",
      "type": "function"
    },
    {
      "inputs": [
        {
          "internalType": "uint64",
          "name": "subId",
          "type": "uint64"
        }
      ],
      "name": "getSubscription",
      "outputs": [
        {
          "internalType": "uint96",
          "name": "balance",
          "type": "uint96"
        },
        {
          "internalType": "uint64",
          "name": "reqCount",
          "type": "uint64"
        },
        {
          "internalType": "address",
          "name": "owner",
          "type": "address"
        },
        {
          "internalType": "address[]",
          "name": "consumers",
          "type": "address[]"
        }
      ],
      "stateMutability": "view",
      "type": "function"
    },
    {
      "inputs": [
        {
          "internalType": "uint64",
          "name": "subId",
          "type": "uint64"
        }
      ],
      "name": "pendingRequestExists",
      "outputs": [
        {
          "internalType": "bool",
          "name": "",
          "type": "bool"
        }
      ],
      "stateMutability": "view",
      "type": "function"
    },
    {
      "inputs": [
        {
          "internalType": "bytes",
          "name": "",
          "type": "bytes"
        }
      ],
      "name": "performUpkeep",
      "outputs": [],
      "stateMutability": "nonpayable",
      "type": "function"
    },
    {
      "inputs": [
        {
          "internalType": "uint256",
          "name": "requestId",
          "type": "uint256"
        },
        {
          "internalType": "uint256[]",
          "name": "randomWords",
          "type": "uint256[]"
        }
      ],
      "name": "rawFulfillRandomWords",
      "outputs": [],
      "stateMutability": "nonpayable",
      "type": "function"
    },
    {
      "inputs": [
        {
          "internalType": "uint64",
          "name": "subId",
          "type": "uint64"
        },
        {
          "internalType": "address",
          "name": "consumer",
          "type": "address"
        }
      ],
      "name": "removeConsumer",
      "outputs": [],
      "stateMutability": "nonpayable",
      "type": "function"
    },
    {
      "inputs": [
        {
          "internalType": "bytes32",
          "name": "keyHash",
          "type": "bytes32"
        },
        {
          "internalType": "uint64",
          "name": "subId",
          "type": "uint64"
        },
        {
          "internalType": "uint16",
          "name": "minimumRequestConfirmations",
          "type": "uint16"
        },
        {
          "internalType": "uint32",
          "name": "callbackGasLimit",
          "type": "uint32"
        },
        {
          "internalType": "uint32",
          "name": "numWords",
          "type": "uint32"
        }
      ],
      "name": "requestRandomWords",
      "outputs": [
        {
          "internalType": "uint256",
          "name": "requestId",
          "type": "uint256"
        }
      ],
      "stateMutability": "nonpayable",
      "type": "function"
    },
    {
      "inputs": [
        {
          "internalType": "uint64",
          "name": "subId",
          "type": "uint64"
        },
        {
          "internalType": "address",
          "name": "newOwner",
          "type": "address"
        }
      ],
      "name": "requestSubscriptionOwnerTransfer",
      "outputs": [],
      "stateMutability": "nonpayable",
      "type": "function"
    }
  ],
  "bytecode": "0x6101406040523480156200001257600080fd5b5060405162001ba038038062001ba08339818101604052810190620000389190620001a8565b858073ffffffffffffffffffffffffffffffffffffffff1660808173ffffffffffffffffffffffffffffffffffffffff1660601b81525050508573ffffffffffffffffffffffffffffffffffffffff1660a08173ffffffffffffffffffffffffffffffffffffffff1660601b815250508467ffffffffffffffff1660e08167ffffffffffffffff1660c01b815250508360c0818152505082610120818152505060008054906101000a900463ffffffff169150806101008181525050426003819055506000600260006101000a81548160ff02191690836001811115620001245762000123620002b0565b5b021790555050505050505062000366565b6000815190506200014681620002e4565b92915050565b6000815190506200015d81620002fe565b92915050565b600081519050620001748162000318565b92915050565b6000815190506200018b8162000332565b92915050565b600081519050620001a2816200034c565b92915050565b60008060008060008060c08789031215620001c857620001c7620002df565b5b6000620001d889828a0162000135565b9650506020620001eb89828a0162000191565b9550506040620001fe89828a016200014c565b94505060606200021189828a0162000163565b93505060806200022489828a016200017a565b92505060a06200023789828a0162000163565b9150509295509295509295565b6000620002518262000262565b9050919050565b6000819050919050565b600073ffffffffffffffffffffffffffffffffffffffff82169050919050565b6000819050919050565b600063ffffffff82169050919050565b600067ffffffffffffffff82169050919050565b7f4e487b7100000000000000000000000000000000000000000000000000000000600052602160045260246000fd5b600080fd5b620002ef8162000244565b8114620002fb57600080fd5b50565b620003098162000258565b81146200031557600080fd5b50565b620003238162000282565b81146200032f57600080fd5b50565b6200033d816200028c565b81146200034957600080fd5b50565b62000357816200029c565b81146200036357600080fd5b50565b60805160601c60a05160601c60c05160e05160c01c61010051610120516117da620003c660003960006107e70152600061042a015260006106ac0152600061068b0152600061064f01526000818161036a01526103be01526117da6000f3fe6080604052600436106100dc5760003560e01c80637341c10c1161007f578063a21a23e411610059578063a21a23e414610289578063a47c7696146102b4578063d7ae1d30146102f4578063e82ad7d41461031d576100dc565b80637341c10c1461020e57806382359740146102375780639f87fad714610260576100dc565b80632cfcc539116100bb5780632cfcc539146101605780634585e33b1461016a5780635d3b1d30146101935780636e04ff0d146101d0576100dc565b8062012291146100e157806304c357cb1461010e5780631fe543e314610137575b600080fd5b3480156100ed57600080fd5b506100f661035a565b60405161010593929190611265565b60405180910390f35b34801561011a57600080fd5b5061013560048036038101906101309190610f5c565b610364565b005b34801561014357600080fd5b5061015e60048036038101906101599190610ed3565b610368565b005b610168610428565b005b34801561017657600080fd5b50610191600480360381019061018c9190610e10565b610597565b005b34801561019f57600080fd5b506101ba60048036038101906101b59190610d95565b610787565b6040516101c791906112a3565b60405180910390f35b3480156101dc57600080fd5b506101f760048036038101906101f29190610e5d565b610792565b6040516102059291906111e2565b60405180910390f35b34801561021a57600080fd5b5061023560048036038101906102309190610f5c565b610879565b005b34801561024357600080fd5b5061025e60048036038101906102599190610f2f565b61087d565b005b34801561026c57600080fd5b5061028760048036038101906102829190610f5c565b610880565b005b34801561029557600080fd5b5061029e610884565b6040516102ab91906112f5565b60405180910390f35b3480156102c057600080fd5b506102db60048036038101906102d69190610f2f565b610889565b6040516102eb9493929190611310565b60405180910390f35b34801561030057600080fd5b5061031b60048036038101906103169190610f5c565b610897565b005b34801561032957600080fd5b50610344600480360381019061033f9190610f2f565b61089b565b60405161035191906111c7565b60405180910390f35b6000806060909192565b5050565b7f000000000000000000000000000000000000000000000000000000000000000073ffffffffffffffffffffffffffffffffffffffff163373ffffffffffffffffffffffffffffffffffffffff161461041a57337f00000000000000000000000000000000000000000000000000000000000000006040517f1cf993f400000000000000000000000000000000000000000000000000000000815260040161041192919061119e565b60405180910390fd5b61042482826108a2565b5050565b7f0000000000000000000000000000000000000000000000000000000000000000341015610482576040517faefe484200000000000000000000000000000000000000000000000000000000815260040160405180910390fd5b600060018111156104965761049561165b565b5b600260009054906101000a900460ff1660018111156104b8576104b761165b565b5b146104ef576040517f4ff3426e00000000000000000000000000000000000000000000000000000000815260040160405180910390fd5b6001339080600181540180825580915050600190039060005260206000200160009091909190916101000a81548173ffffffffffffffffffffffffffffffffffffffff021916908373ffffffffffffffffffffffffffffffffffffffff1602179055503373ffffffffffffffffffffffffffffffffffffffff167f0805e1d667bddb8a95f0f09880cf94f403fb596ce79928d9f29b74203ba284d460405160405180910390a2565b60006105b160405180602001604052806000815250610792565b509050806106205747600180549050600260009054906101000a900460ff1660018111156105e2576105e161165b565b5b6040517f1febb43f000000000000000000000000000000000000000000000000000000008152600401610617939291906112be565b60405180910390fd5b6001600260006101000a81548160ff021916908360018111156106465761064561165b565b5b021790555060007f000000000000000000000000000000000000000000000000000000000000000073ffffffffffffffffffffffffffffffffffffffff16635d3b1d307f00000000000000000000000000000000000000000000000000000000000000007f0000000000000000000000000000000000000000000000000000000000000000600360008054906101000a900463ffffffff1660016040518663ffffffff1660e01b8152600401610700959493929190611212565b602060405180830381600087803b15801561071a57600080fd5b505af115801561072e573d6000803e3d6000fd5b505050506040513d601f19601f820116820180604052508101906107529190610ea6565b9050807fcd6e45c8998311cab7e9d4385596cac867e20a0587194b954fa3a731c93ce78b60405160405180910390a250505050565b600095945050505050565b6000606060008060018111156107ab576107aa61165b565b5b600260009054906101000a900460ff1660018111156107cd576107cc61165b565b5b1490506000806001805490501190506000804711905060007f0000000000000000000000000000000000000000000000000000000000000000600354426108149190611477565b1190508380156108215750825b801561082a5750815b80156108335750805b9550856040518060400160405280600381526020017f30783000000000000000000000000000000000000000000000000000000000008152509550955050505050915091565b5050565b50565b5050565b600090565b600080600060609193509193565b5050565b6000919050565b6000600180549050826000815181106108be576108bd61168a565b5b60200260200101516108d091906115cc565b90506000600182815481106108e8576108e761168a565b5b9060005260206000200160009054906101000a900473ffffffffffffffffffffffffffffffffffffffff16905080600260016101000a81548173ffffffffffffffffffffffffffffffffffffffff021916908373ffffffffffffffffffffffffffffffffffffffff160217905550600067ffffffffffffffff811115610971576109706116b9565b5b60405190808252806020026020018201604052801561099f5781602001602082028036833780820191505090505b50600190805190602001906109b5929190610af7565b506000600260006101000a81548160ff021916908360018111156109dc576109db61165b565b5b02179055504260038190555060008173ffffffffffffffffffffffffffffffffffffffff1647604051610a0e90611189565b60006040518083038185875af1925050503d8060008114610a4b576040519150601f19603f3d011682016040523d82523d6000602084013e610a50565b606091505b5050905080610a8b576040517ff14c8af100000000000000000000000000000000000000000000000000000000815260040160405180910390fd5b600260019054906101000a900473ffffffffffffffffffffffffffffffffffffffff1673ffffffffffffffffffffffffffffffffffffffff167fe1becba315bbc7476573420d6218b61de9aa81ae6f20904b35f4f1e74eccac0160405160405180910390a25050505050565b828054828255906000526020600020908101928215610b70579160200282015b82811115610b6f5782518260006101000a81548173ffffffffffffffffffffffffffffffffffffffff021916908373ffffffffffffffffffffffffffffffffffffffff16021790555091602001919060010190610b17565b5b509050610b7d9190610b81565b5090565b5b80821115610b9a576000816000905550600101610b82565b5090565b6000610bb1610bac84611381565b61135c565b90508083825260208201905082856020860282011115610bd457610bd36116f2565b5b60005b85811015610c045781610bea8882610d41565b845260208401935060208301925050600181019050610bd7565b5050509392505050565b6000610c21610c1c846113ad565b61135c565b905082815260208101848484011115610c3d57610c3c6116f7565b5b610c48848285611559565b509392505050565b600081359050610c5f8161171a565b92915050565b600082601f830112610c7a57610c796116ed565b5b8135610c8a848260208601610b9e565b91505092915050565b600081359050610ca281611731565b92915050565b60008083601f840112610cbe57610cbd6116ed565b5b8235905067ffffffffffffffff811115610cdb57610cda6116e8565b5b602083019150836001820283011115610cf757610cf66116f2565b5b9250929050565b600082601f830112610d1357610d126116ed565b5b8135610d23848260208601610c0e565b91505092915050565b600081359050610d3b81611748565b92915050565b600081359050610d508161175f565b92915050565b600081519050610d658161175f565b92915050565b600081359050610d7a81611776565b92915050565b600081359050610d8f8161178d565b92915050565b600080600080600060a08688031215610db157610db0611701565b5b6000610dbf88828901610c93565b9550506020610dd088828901610d80565b9450506040610de188828901610d2c565b9350506060610df288828901610d6b565b9250506080610e0388828901610d6b565b9150509295509295909350565b60008060208385031215610e2757610e26611701565b5b600083013567ffffffffffffffff811115610e4557610e446116fc565b5b610e5185828601610ca8565b92509250509250929050565b600060208284031215610e7357610e72611701565b5b600082013567ffffffffffffffff811115610e9157610e906116fc565b5b610e9d84828501610cfe565b91505092915050565b600060208284031215610ebc57610ebb611701565b5b6000610eca84828501610d56565b91505092915050565b60008060408385031215610eea57610ee9611701565b5b6000610ef885828601610d41565b925050602083013567ffffffffffffffff811115610f1957610f186116fc565b5b610f2585828601610c65565b9150509250929050565b600060208284031215610f4557610f44611701565b5b6000610f5384828501610d80565b91505092915050565b60008060408385031215610f7357610f72611701565b5b6000610f8185828601610d80565b9250506020610f9285828601610c50565b9150509250929050565b6000610fa88383610fcc565b60208301905092915050565b6000610fc083836110b5565b60208301905092915050565b610fd5816114ab565b82525050565b610fe4816114ab565b82525050565b6000610ff5826113fe565b610fff8185611439565b935061100a836113de565b8060005b8381101561103b5781516110228882610f9c565b975061102d8361141f565b92505060018101905061100e565b5085935050505092915050565b600061105382611409565b61105d818561144a565b9350611068836113ee565b8060005b838110156110995781516110808882610fb4565b975061108b8361142c565b92505060018101905061106c565b5085935050505092915050565b6110af816114bd565b82525050565b6110be816114c9565b82525050565b6110cd816114c9565b82525050565b60006110de82611414565b6110e8818561145b565b93506110f8818560208601611568565b61110181611706565b840191505092915050565b600061111960008361146c565b915061112482611717565b600082019050919050565b611138816114d3565b82525050565b61114781611547565b82525050565b61115681611501565b82525050565b6111658161150b565b82525050565b6111748161151b565b82525050565b6111838161152f565b82525050565b60006111948261110c565b9150819050919050565b60006040820190506111b36000830185610fdb565b6111c06020830184610fdb565b9392505050565b60006020820190506111dc60008301846110a6565b92915050565b60006040820190506111f760008301856110a6565b818103602083015261120981846110d3565b90509392505050565b600060a08201905061122760008301886110c4565b611234602083018761116b565b611241604083018661112f565b61124e606083018561115c565b61125b608083018461113e565b9695505050505050565b600060608201905061127a600083018661112f565b611287602083018561115c565b81810360408301526112998184611048565b9050949350505050565b60006020820190506112b8600083018461114d565b92915050565b60006060820190506112d3600083018661114d565b6112e0602083018561114d565b6112ed604083018461114d565b949350505050565b600060208201905061130a600083018461116b565b92915050565b6000608082019050611325600083018761117a565b611332602083018661116b565b61133f6040830185610fdb565b81810360608301526113518184610fea565b905095945050505050565b6000611366611377565b9050611372828261159b565b919050565b6000604051905090565b600067ffffffffffffffff82111561139c5761139b6116b9565b5b602082029050602081019050919050565b600067ffffffffffffffff8211156113c8576113c76116b9565b5b6113d182611706565b9050602081019050919050565b6000819050602082019050919050565b6000819050602082019050919050565b600081519050919050565b600081519050919050565b600081519050919050565b6000602082019050919050565b6000602082019050919050565b600082825260208201905092915050565b600082825260208201905092915050565b600082825260208201905092915050565b600081905092915050565b600061148282611501565b915061148d83611501565b9250828210156114a05761149f6115fd565b5b828203905092915050565b60006114b6826114e1565b9050919050565b60008115159050919050565b6000819050919050565b600061ffff82169050919050565b600073ffffffffffffffffffffffffffffffffffffffff82169050919050565b6000819050919050565b600063ffffffff82169050919050565b600067ffffffffffffffff82169050919050565b60006bffffffffffffffffffffffff82169050919050565b6000611552826114d3565b9050919050565b82818337600083830152505050565b60005b8381101561158657808201518184015260208101905061156b565b83811115611595576000848401525b50505050565b6115a482611706565b810181811067ffffffffffffffff821117156115c3576115c26116b9565b5b80604052505050565b60006115d782611501565b91506115e283611501565b9250826115f2576115f161162c565b5b828206905092915050565b7f4e487b7100000000000000000000000000000000000000000000000000000000600052601160045260246000fd5b7f4e487b7100000000000000000000000000000000000000000000000000000000600052601260045260246000fd5b7f4e487b7100000000000000000000000000000000000000000000000000000000600052602160045260246000fd5b7f4e487b7100000000000000000000000000000000000000000000000000000000600052603260045260246000fd5b7f4e487b7100000000000000000000000000000000000000000000000000000000600052604160045260246000fd5b600080fd5b600080fd5b600080fd5b600080fd5b600080fd5b600080fd5b6000601f19601f8301169050919050565b50565b611723816114ab565b811461172e57600080fd5b50565b61173a816114c9565b811461174557600080fd5b50565b611751816114d3565b811461175c57600080fd5b50565b61176881611501565b811461177357600080fd5b50565b61177f8161150b565b811461178a57600080fd5b50565b6117968161151b565b81146117a157600080fd5b5056fea264697066735822122005cda7b5cb638f99d6c3dd6b745717336dd2c709f1a4d2b4d92ba27a40abe7d764736f6c63430008070033",
  "linkReferences": {},
  "deployedLinkReferences": {}
}